:020000040000FA
:100000000C946B000C9493000C9493000C9493004C
:100010000C9493000C9493000C9493000C94930014
:100020000C9493000C9493000C9493000C94930004
:100030000C9493000C9493000C9493000C949300F4
:100040000C9446050C9493000C9414050C94EE0447
:100050000C9493000C9493000C9493000C949300D4
:100060000C9493000C9493000000000025002800DD
:100070002B000000000023002600290000000008DB
:10008000000201000003040700000000000000005F
:1000900000000000240027002A00010204081020AC
:1000A000408001020408102001020408102004040A
:1000B0000404040404040202020202020303030310
:1000C00003031112131415160A0B0C0D0E0F000169
:1000D00002030405900511241FBECFEFD8E0DEBF58
:1000E000CDBF22E0ACEBB1E001C01D92A53DB2074F
:1000F000E1F711E0A0E0B1E0E4E1F8E102C0059031
:100100000D92AC3BB107D9F710E0CBE6D0E004C0CC
:100110002197FE010E94020CCA36D107C9F70E943E
:10012000DD050C94080C0C940000AF92BF92CF92A6
:10013000DF92EF92FF920F931F93CF93DF936C01A7
:100140007B018B01040F151FEB015E01AE18BF0888
:10015000C017D10759F06991D601ED91FC9101903A
:10016000F081E02DC6010995892B79F7C501DF9152
:10017000CF911F910F91FF90EF90DF90CF90BF90A4
:10018000AF900895FC01538D448D252F30E0842FCE
:1001900090E0821B930B541710F0CF9608950197AF
:1001A0000895FC01918D828D981761F0A28DAE0F9C
:1001B000BF2FB11D5D968C91928D9F5F9F73928F23
:1001C00090E008958FEF9FEF0895FC01918D828D4F
:1001D000981731F0828DE80FF11D858D90E008951C
:1001E0008FEF9FEF0895FC01918D228D892F90E074
:1001F000805C9F4F821B91098F739927089586EC2D
:1002000091E00E94F30021E0892B09F420E0822F85
:10021000089580E090E0892B29F00E94FF00811171
:100220000C9400000895FC01A48DA80FB92FB11DF6
:10023000A35ABF4F2C91848D90E001968F7399271C
:10024000848FA689B7892C93A089B1898C918370FA
:1002500080648C93938D848D981306C00288F389F3
:10026000E02D80818F7D80830895EF92FF920F9320
:100270001F93CF93DF93EC0181E0888F9B8D8C8D52
:1002800098131AC0E889F989808185FF15C09FB746
:10029000F894EE89FF896083E889F9898081837009
:1002A000806480839FBF81E090E0DF91CF911F91B8
:1002B0000F91FF90EF900895F62E0B8D10E00F5FD9
:1002C0001F4F0F731127E02E8C8D8E110CC00FB6AF
:1002D00007FCFACFE889F989808185FFF5CFCE0147
:1002E0000E941301F1CFEB8DEC0FFD2FF11DE35AAE
:1002F000FF4FF0829FB7F8940B8FEA89FB898081CA
:100300008062CFCFCF93DF93EC01888D8823B9F043
:10031000AA89BB89E889F9898C9185FD03C0808110
:1003200086FD0DC00FB607FCF7CF8C9185FFF2CF8D
:10033000808185FFEDCFCE010E941301E9CFDF91CF
:10034000CF910895833081F028F4813099F0823084
:10035000A9F008958730A9F08830C9F08430B1F44D
:10036000809180008F7D03C0809180008F77809383
:100370008000089584B58F7784BD089584B58F7DFE
:10038000FBCF8091B0008F778093B000089580916B
:10039000B0008F7DF9CFCF93DF93282F30E0F901A4
:1003A000E458FF4F8491F901E656FF4FD491F901CB
:1003B000E255FF4FC491CC23A1F081110E94A2010C
:1003C000EC2FF0E0EE0FFF1FEE58FF4FA591B49118
:1003D000EC91ED2381E090E009F480E0DF91CF9192
:1003E000089580E090E0FACF1F93CF93DF93282FFA
:1003F00030E0F901E458FF4F8491F901E656FF4FD0
:10040000D491F901E255FF4FC491CC23A9F0162FE6
:1004100081110E94A201EC2FF0E0EE0FFF1FE859BE
:10042000FF4FA591B4918FB7F894EC91111108C0CA
:10043000D095DE23DC938FBFDF91CF911F9108957C
:10044000DE2BF8CF9CB59F7D9CBD9CB5937F9CBD5A
:100450009CB59C7F9CBD9DB591609DBD682F809192
:10046000BF020E94F4018091D1029091D2028230A9
:10047000910538F0880F991F880F991F05970197EC
:10048000F1F70895CF93DF9390E0FC01E656FF4F1C
:10049000249182559F4FFC0184918823D1F090E0F4
:1004A000880F991FFC01E057FF4FA591B491FC0103
:1004B000E859FF4FC591D491623071F49FB7F89419
:1004C0003C91822F809583238C93E8812E2B288367
:1004D0009FBFDF91CF9108958FB7F894EC912E2BA9
:1004E0002C938FBFF6CF3FB7F8948091C1019091C4
:1004F000C201A091C301B091C40126B5A89B05C05B
:100500002F3F19F00196A11DB11D3FBFBA2FA92F92
:10051000982F8827BC01CD01620F711D811D911D8F
:1005200042E0660F771F881F991F4A95D1F70895FB
:100530008F929F92AF92BF92CF92DF92EF92FF92F3
:100540000E9473024B015C0185E0C82ED12CE12C86
:10055000F12C0E947302681979098A099B09683E87
:10056000734081059105A8F321E0C21AD108E10882
:10057000F10888EE880E83E0981EA11CB11CC114FE
:10058000D104E104F10429F7FF90EF90DF90CF90C0
:10059000BF90AF909F908F9008958EBD00000DB4D6
:1005A00007FEFDCF8EB50895CF93DF93C82FD62FCA
:1005B00080E00E9422028C2F8F7180620E94CD0207
:1005C000C82F8D2F0E94CD0281E00E9422028C2F25
:1005D000DF91CF910895CF9380E00E94220281EEB7
:1005E0000E94CD02C82F81E00E9422028C2FCF9161
:1005F0000895CF93C82F80E00E9422028C2F0E9482
:10060000CD028FEF0E94CD02C82F81E00E9422020E
:100610008C2FCF91089580E00E94F90281FD07C0E0
:10062000682F626080E00E94D4020C9498020895C2
:100630000F931F93CF938C0186E00E94F902C82F7D
:10064000C77D02301105E1F4C0628BE990E0A0E0C3
:10065000B0E08093CD029093CE02A093CF02B093EE
:10066000D0026C2F86E00E94D40286E00E94F9023C
:1006700091E0C81390E0892FCF911F910F910895B9
:1006800085E590E0A0E0B0E00130110511F7C86009
:1006900081E490E0A0E0B0E0DCCFEF92FF920F9316
:1006A0001F93CF93DF93C82F7B01142F80E00E940C
:1006B00022028C2F8F7180620E94CD02082FE701E9
:1006C000115020F089910E94CD02FACF81E00E9462
:1006D0002202802FDF91CF911F910F91FF90EF9019
:1006E0000895FC0101900020E9F73197AF01481B04
:1006F000590BBC0186EC91E00C9495008F929F926F
:10070000AF92BF920F931F93CF93DF93CDB7DEB716
:10071000A1970FB6F894DEBF0FBECDBF19A242302D
:1007200008F44AE08E010F5D1F4F842E912CB12CEE
:10073000A12CA50194010E94E00BE62FB901CA018A
:10074000EA30F4F4E05DD801EE938D01232B242BE5
:10075000252B79F790E080E0109719F0CD010E94E9
:100760007103A1960FB6F894DEBF0FBECDBFDF9127
:10077000CF911F910F91BF90AF909F908F90089550
:10078000E95CE1CF0C947103CF93DF930E94710376
:10079000EC0182E191E00E9471038C0F9D1FDF91BB
:1007A000CF9108954F925F926F927F928F929F9216
:1007B000AF92BF92CF92DF92EF92FF920F931F936F
:1007C000CF936B017C01742EAC019B010E94DB0B6B
:1007D000882399F085E191E0CF911F910F91FF90CF
:1007E000EF90DF90CF90BF90AF909F908F907F90D1
:1007F0006F905F904F900C94710346015701E894FD
:10080000B7F82FEF3FEF4FE75FE7C501B4010E9454
:10081000DB0B81110DC02FEF3FEF4FE75FE7C50105
:10082000B4010E94110A18161CF489E191E0D4CF9A
:100830002FEF3FEF4FE75FE4C701B6010E94690B5E
:1008400018161CF48DE191E0C7CF2FEF3FEF4FE773
:100850005FECC701B6010E94110A87FDF3CF20E0CB
:1008600030E0A901C701B6010E94110A10E000E0C2
:1008700087FF0AC06DE286EC91E00E9435018C0191
:10088000F7FAF094F7F8F094C0E060E070E080E0F0
:100890009FE37C1641F020E030E040E251E40E940A
:1008A000160ACF5FF6CFA70196010E94A5092B017A
:1008B0003C010E94880A4B015C014AE00E947E03D1
:1008C0007C01E00EF11ECC23C1F1C501B4010E94F0
:1008D000B70A9B01AC01C301B2010E94A4094B01FC
:1008E0005C016EE286EC91E00E943501E80EF91E93
:1008F000C15018F120E030E040E251E4C501B401FC
:100900000E946E0B2B013C010E94880A4B01B12C06
:10091000A12C4AE0C501B4010E947E03E80EF91E35
:10092000C501B4010E94B70A9B01AC01C301B20129
:100930000E94A4094B015C01DBCFC701CF911F913D
:100940000F91FF90EF90DF90CF90BF90AF909F906E
:100950008F907F906F905F904F900895CF93DF932B
:100960000E94D203EC0182E191E00E9471038C0F9E
:100970009D1FDF91CF910895CF92DF92EF92FF926A
:10098000CF93DF936C01990FEE08FF08F7FE1FC0AD
:100990006DE286EC91E00E943501EC016627772735
:1009A000CB016C197D098E099F094AE00E947E03E4
:1009B000C80FD91F82E191E00E9471038C0F9D1F27
:1009C000DF91CF91FF90EF90DF90CF9008954AE0B4
:1009D000C701B6010E947E03EC01ECCF1F920F927B
:1009E0000FB60F9211242F933F934F935F936F9302
:1009F0007F938F939F93AF93BF93EF93FF9386EC77
:100A000091E00E941301FF91EF91BF91AF919F91EF
:100A10008F917F916F915F914F913F912F910F90A7
:100A20000FBE0F901F9018951F920F920FB60F9246
:100A300011242F938F939F93EF93FF93E091D6010F
:100A4000F091D7018081E091DC01F091DD0182FD20
:100A50001BC090818091DF018F5F8F732091E00137
:100A6000821741F0E091DF01F0E0EA53FE4F958FED
:100A70008093DF01FF91EF919F918F912F910F90C4
:100A80000FBE0F901F9018958081F4CF1F920F9288
:100A90000FB60F9211242F933F938F939F93AF9391
:100AA000BF938091BD019091BE01A091BF01B09113
:100AB000C0013091BC0123E0230F2D3758F501967A
:100AC000A11DB11D2093BC018093BD019093BE0177
:100AD000A093BF01B093C0018091C1019091C20168
:100AE000A091C301B091C4010196A11DB11D8093D5
:100AF000C1019093C201A093C301B093C401BF91FF
:100B0000AF919F918F913F912F910F900FBE0F90BA
:100B10001F90189526E8230F0296A11DB11DD2CF74
:100B2000E6ECF1E01382128288EE93E0A0E0B0E000
:100B300084839583A683B78384E091E09183808347
:100B400085EC90E09587848784EC90E09787868792
:100B500080EC90E0918B808B81EC90E0938B828B8A
:100B600082EC90E0958B848B86EC90E0978B868B63
:100B7000118E128E138E148EEDEBF2E08AE090E06F
:100B80009183808389E090E093838283168280E260
:100B90008783108685E0868785E090E0A0E0B0E05E
:100BA000848B958BA68BB78B118610929F02109227
:100BB000810281E0809363020895CF93DF93CDB7E4
:100BC000DEB728970FB6F894DEBF0FBECDBF78947E
:100BD00084B5826084BD84B5816084BD85B5826042
:100BE00085BD85B5816085BD80916E0081608093F3
:100BF0006E0010928100809181008260809381005C
:100C0000809181008160809381008091800081606B
:100C1000809380008091B10084608093B1008091C6
:100C2000B00081608093B00080917A0084608093EE
:100C30007A0080917A00826080937A0080917A00B5
:100C4000816080937A0080917A00806880937A0036
:100C50001092C10062E083E00E94420262E084E000
:100C60000E94420262E085E00E944202E091D601C9
:100C7000F091D70182E08083E091D201F091D3011D
:100C80001082E091D401F091D50180E1808310922F
:100C9000DE01E091DA01F091DB0186E08083E091F2
:100CA000D801F091D901808180618083E091D801E1
:100CB000F091D901808188608083E091D801F09122
:100CC000D901808180688083E091D801F091D901B9
:100CD00080818F7D80838091BD029091BE022091A2
:100CE000BF023091C0028217930719F061E00E94A1
:100CF00042028091BF029091C0022091BD023091CA
:100D0000BE022817390719F061E00E9442021FB79E
:100D1000F8948091C501811127C0E8EBF0E084913F
:100D2000E4EAF0E09491E82FF0E0EE0FFF1FE057C7
:100D3000FF4FA591B491EC91E92321F461E08AE0A1
:100D40000E94F40161E08AE00E9442028CB5806159
:100D50008CBD8CB580648CBD61E08DE00E94420248
:100D600061E08BE00E9442028091C5018F5F809319
:100D7000C5011FBF8091BD029091BE022091BF02AC
:100D80003091C0028217930719F060E00E94F401CD
:100D900081E00E9422020E9498026CE080E00E94A2
:100DA000D4026FE584E00E94D40282E090E00E94C9
:100DB0001803882319F081E08093C30286E00E9423
:100DC000F90290E080E00E94180380E00E94220275
:100DD00080E50E94CD0283E70E94CD0281E00E945F
:100DE000220260E08DE10E94D40260E08CE10E946A
:100DF000D4021092C50260E787E00E94D4026CE43E
:100E000085E00E94D40280E00E94220282EE0E94CD
:100E1000CD0281E00E9422020E94EB020E940B039D
:100E200080E00E94F902682F6E7F80E00E94D40269
:100E300068E785E00E94D40281E090E00E941803F8
:100E400086E00E94F902887F682F656086E00E9434
:100E5000D40289E9898388E78A8386E58B8384E3E2
:100E60008C8382E18D831E821F821886E9ECF0E07C
:100E700084914091CB02BE016F5F7F4F0E944D0372
:100E8000E3ECF0E084916091C4020E94D40282E01D
:100E90000E94F902EFECF0E0E49161E070E001C043
:100EA000660FEA95EAF7682B82E00E94D4020E945E
:100EB0000B0380E00E94F902682F616080E00E94CD
:100EC000D40260E787E00E94D4028091BD02909135
:100ED000BE022091BF023091C0028217930719F021
:100EE00061E00E94F4018091C6028823A1F1409143
:100EF000CB0266EC72E08AE00E944D038DE10E9415
:100F0000F90281FD0E94EB0290E0E92E90E0F92EBB
:100F100087E10E94F90280FDECC01091C402012F0C
:100F20001E3108F00EE18091C502101B811110E006
:100F300080E00E94220281E60E94CD0281E8C82E54
:100F400082E0D82E0150D0F08FEF0E94CD02F60142
:100F500081936F01F7CF82E00E94F902EEECF0E09E
:100F6000E49121E030E001C0220FEA95EAF72095F4
:100F7000622F682382E00E94D402C0CF115020F07B
:100F80008FEF0E94CD02FACF81E00E94220260E73B
:100F900087E00E94D40280918102882309F482C0F4
:100FA0008091820290918302A0918402B091850287
:100FB0008093640290936502A0936602B0936702E7
:100FC0008091860290918702A0918802B091890257
:100FD0008093680290936902A0936A02B0936B02B7
:100FE00080918C0280936E0280918D0290918E028E
:100FF0009093700280936F0280918F029091900283
:10100000A0919102B091920280937102909372022A
:10101000A0937302B0937402809193029091940212
:10102000A0919502B09196028093750290937602FA
:10103000A0937702B093780280919B0290919C02DA
:10104000A0919D02B0919E0280937D0290937E02BA
:10105000A0937F02B09380028091970290919802B2
:10106000A0919902B0919A028093790290937A02AA
:10107000A0937B02B0937C0283E00E94CB01892B7A
:10108000D9F481E291E00E94C2036091A4027091C0
:10109000A5028091A6029091A70242E050E00E9432
:1010A000AE0423C08EE1E1E8F2E0AFE9B2E00190E6
:1010B0000D928A95E1F7E0CF84E00E94CB01892B65
:1010C00021F581E291E00E94C2036091A00270913B
:1010D000A1028091A2029091A30242E050E00E94FE
:1010E000AE048AE891E00E94C40383E291E00E948A
:1010F000C203E114F10409F40BCF0E94FF0088231E
:1011000009F406CF0E94000003CF85E00E94CB01C6
:10111000892B09F044C081E291E00E94C2036091F2
:10112000A8027091A902072E000C880B990B0E944F
:10113000B90A2EE134EC40E550E40E94160A42E080
:1011400050E00E94AE048AE891E00E94C4036091DE
:10115000AA02062E000C770B880B990B0E94B90A85
:101160002EE134EC40E550E40E94160A42E050E0E3
:101170000E94AE048AE891E00E94C4036091AB0231
:101180007091AC02072E000C880B990B0E94B90AD3
:101190002EE134EC40E550E40E94160A7ECF85E251
:1011A00091E00E94C2036091A0027091A10280911F
:1011B000A2029091A30242E050E00E94AE048CE3B0
:1011C00091E00E94C2036091A4027091A5028091F7
:1011D000A6029091A70242E050E00E94AE048FE484
:1011E00091E00E94C2038AE891E00E94C2038091CC
:1011F000A8029091A9020E94BC048CE591E00E9493
:10120000C2038091AA02082E000C990B0E94BC0414
:1012100089E691E00E94C2038091AB029091AC02FA
:101220000E94BC0486E791E00E94C20380916F0295
:10123000909170020E94BC0480E891E00E94C20379
:101240006091AD027091AE028091AF029091B002B8
:1012500045E00E94D20387E891E00E94C2036091BA
:10126000B1027091B2028091B3029091B40245E054
:1012700050E00E94AE048CE891E00E94C2036091AD
:10128000640270916502809166029091670242E06B
:1012900050E00E94AE0482E991E00E94C203609196
:1012A00068027091690280916A0290916B0242E03B
:1012B00050E00E94AE048BE991E00E94C20360916D
:1012C000710270917202809173029091740242E0F7
:1012D00050E00E94AE0485EA91E00E94C203609152
:1012E000750270917602809177029091780242E0C7
:1012F00050E00E94AE048FEA91E00E94C203609128
:10130000790270917A0280917B0290917C0245E093
:1013100050E00E94AE0484E191E00E94C40384E1A5
:1013200091E00E94C40384E191E00E94C40384E13F
:1013300091E00E94C40384E191E00E94C40384E12F
:1013400091E00E94C403D5CE5058BB27AA270E9423
:10135000BC090C942F0B0E94210B38F00E94280B23
:1013600020F039F49F3F19F426F40C941E0B0EF470
:10137000E095E7FB0C94180BE92F0E94400B58F303
:10138000BA17620773078407950720F079F4A6F56A
:101390000C94620B0EF4E0950B2EBA2FA02D0B01CE
:1013A000B90190010C01CA01A0011124FF27591BAA
:1013B00099F0593F50F4503E68F11A16F040A22FB0
:1013C000232F342F4427585FF3CF46953795279521
:1013D000A795F0405395C9F77EF41F16BA0B620B20
:1013E000730B840BBAF09150A1F0FF0FBB1F661F67
:1013F000771F881FC2F70EC0BA0F621F731F841FAA
:1014000048F4879577956795B795F7959E3F08F0CF
:10141000B0CF9395880F08F09927EE0F9795879591
:1014200008950E94F40A08F481E008950E942A0AAF
:101430000C942F0B0E94280B58F00E94210B40F0B7
:1014400029F45F3F29F00C94180B51110C94630B95
:101450000C941E0B0E94400B68F39923B1F35523A3
:1014600091F3951B550BBB27AA27621773078407B7
:1014700038F09F5F5F4F220F331F441FAA1FA9F34D
:1014800035D00E2E3AF0E0E832D091505040E6953B
:10149000001CCAF72BD0FE2F29D0660F771F881F9C
:1014A000BB1F261737074807AB07B0E809F0BB0B8F
:1014B000802DBF01FF2793585F4F3AF09E3F5105A3
:1014C00078F00C94180B0C94630B5F3FE4F3983E98
:1014D000D4F3869577956795B795F7959F5FC9F78C
:1014E000880F911D9695879597F90895E1E0660F0D
:1014F000771F881FBB1F621773078407BA0720F086
:10150000621B730B840BBA0BEE1F88F7E0950895EE
:101510000E94480B88F09F5798F0B92F9927B75130
:10152000B0F0E1F0660F771F881F991F1AF0BA9587
:10153000C9F714C0B13091F00E94620BB1E0089578
:101540000C94620B672F782F8827B85F39F0B93F6A
:10155000CCF3869577956795B395D9F73EF490953A
:101560008095709561957F4F8F4F9F4F0895E894B8
:1015700009C097FB3EF490958095709561957F4FDB
:101580008F4F9F4F9923A9F0F92F96E9BB27939589
:10159000F695879577956795B795F111F8CFFAF499
:1015A000BB0F11F460FF1BC06F5F7F4F8F4F9F4FCA
:1015B00016C0882311F096E911C0772321F09EE828
:1015C000872F762F05C0662371F096E8862F70E08E
:1015D00060E02AF09A95660F771F881FDAF7880F68
:1015E0009695879597F90895990F0008550FAA0BBE
:1015F000E0E8FEEF16161706E807F907C0F0121626
:101600001306E407F50798F0621B730B840B950B28
:1016100039F40A2661F0232B242B252B21F408957D
:101620000A2609F4A140A6958FEF811D811D08951A
:1016300097F99F6780E870E060E008959FEF80EC85
:10164000089500240A941616170618060906089528
:1016500000240A9412161306140605060895092E8E
:101660000394000C11F4882352F0BB0F40F4BF2BFD
:1016700011F460FF04C06F5F7F4F8F4F9F4F08953D
:1016800057FD9058440F551F59F05F3F71F0479533
:10169000880F97FB991F61F09F3F79F08795089518
:1016A000121613061406551FF2CF4695F1DF08C037
:1016B000161617061806991FF1CF86957105610554
:1016C00008940895E894BB2766277727CB0197F9FC
:1016D00008950E94F40A08F48FEF08950E94810B88
:1016E0000C942F0B0E94210B38F00E94280B20F045
:1016F000952311F00C94180B0C941E0B11240C94D0
:10170000630B0E94400B70F3959FC1F3950F50E05F
:10171000551F629FF001729FBB27F00DB11D639FA3
:10172000AA27F00DB11DAA1F649F6627B00DA11D49
:10173000661F829F2227B00DA11D621F739FB00DEF
:10174000A11D621F839FA00D611D221F749F33275F
:10175000A00D611D231F849F600D211D822F762FF8
:101760006A2F11249F5750409AF0F1F088234AF0D5
:10177000EE0FFF1FBB1F661F771F881F9150504041
:10178000A9F79E3F510580F00C94180B0C94630B45
:101790005F3FE4F3983ED4F3869577956795B795C8
:1017A000F795E7959F5FC1F7FE2B880F911D9695E2
:1017B000879597F908950E94F40A880B990B08956C
:1017C000A1E21A2EAA1BBB1BFD010DC0AA1FBB1F45
:1017D000EE1FFF1FA217B307E407F50720F0A21BB7
:1017E000B30BE40BF50B661F771F881F991F1A9424
:1017F00069F760957095809590959B01AC01BD014E
:10180000CF010895EE0FFF1F0590F491E02D09948C
:10181000F894FFCF0000000035019500C20082015E
:10182000F300D100E5000D0A006E616E00696E667E
:10183000006F76660024003B0054656D7065726130
:1018400074757265202864733138623230293A0029
:1018500050726573737572652028626D703238300E
:10186000293A005820286164786C333435293A00CD
:101870005920286164786C333435293A005A20287D
:101880006164786C333435293A00434F32207070EC
:101890006D3A2000475053203A200020202020009D
:1018A0004F32203A2000434F2070706D203A004E96
:1018B0004F322070706D203A004E48332070706DAA
:1018C000203A00526164696174696F6E203A0000C9
:107E0000112484B714BE81FFF0D085E080938100F7
:107E100082E08093C00088E18093C10086E0809377
:107E2000C20080E18093C4008EE0C9D0259A86E02C
:107E300020E33CEF91E0309385002093840096BBD3
:107E4000B09BFECF1D9AA8958150A9F7CC24DD24C4
:107E500088248394B5E0AB2EA1E19A2EF3E0BF2EE7
:107E6000A2D0813461F49FD0082FAFD0023811F036
:107E7000013811F484E001C083E08DD089C08234E0
:107E800011F484E103C0853419F485E0A6D080C0E4
:107E9000853579F488D0E82EFF2485D0082F10E0AE
:107EA000102F00270E291F29000F111F8ED06801E7
:107EB0006FC0863521F484E090D080E0DECF843638
:107EC00009F040C070D06FD0082F6DD080E0C81688
:107ED00080E7D80618F4F601B7BEE895C0E0D1E017
:107EE00062D089930C17E1F7F0E0CF16F0E7DF06D8
:107EF00018F0F601B7BEE89568D007B600FCFDCFD4
:107F0000A601A0E0B1E02C9130E011968C91119780
:107F100090E0982F8827822B932B1296FA010C0160
:107F200087BEE89511244E5F5F4FF1E0A038BF0790
:107F300051F7F601A7BEE89507B600FCFDCF97BE46
:107F4000E89526C08437B1F42ED02DD0F82E2BD052
:107F50003CD0F601EF2C8F010F5F1F4F84911BD097
:107F6000EA94F801C1F70894C11CD11CFA94CF0C13
:107F7000D11C0EC0853739F428D08EE10CD085E9AC
:107F80000AD08FE07ACF813511F488E018D01DD067
:107F900080E101D065CF982F8091C00085FFFCCF94
:107FA0009093C60008958091C00087FFFCCF809118
:107FB000C00084FD01C0A8958091C6000895E0E648
:107FC000F0E098E1908380830895EDDF803219F02E
:107FD00088E0F5DFFFCF84E1DECF1F93182FE3DFCA
:107FE0001150E9F7F2DF1F91089580E0E8DFEE27F6
:047FF000FF270994CA
:027FFE00040479
:00000001FF
