:100000000C94BC000C94DC190C94B5190C94221BB4
:100010000C94221B0C94221B0C94E4000C94E4001E
:100020000C94E4000C94E4000C94E4000C94E400C0
:100030000C94E4000C94E4000C94E4000C94E400B0
:100040000C946B190C94E4000C9439190C9413194A
:100050000C94E4000C94E4000C94E4000C94E40090
:100060000C94031A0C94E40007634236B79BD8A79C
:100070001A39685618AEBAAB558C1D3CB7CC5763CD
:10008000BD6DEDFD753EF6177231BF000000803F7B
:1000900008000000BE922449123EABAAAA2ABECD97
:1000A000CCCC4C3E00000080BEABAAAAAA3E000009
:1000B0000000BF000000803F000000000008417801
:1000C000D3BB4387D1133D190E3CC3BD4282AD2B38
:1000D0003E68EC8276BED98FE1A93E4C80EFFFBE30
:1000E00001C4FF7F3F00000000007C3C3E5E2B3DD2
:1000F0003F2F5B5D3B2C2A225C00000000002400A7
:1001000027002A0000000000250028002B00005EC8
:10011000BCE2613FDD83C29C7E20A3FD1F41009DA8
:1001200023BE46DB65F88C11AF32CA57E974000074
:1001300000080002010000030407000000000000A6
:10014000000000000000230026002900040404042D
:100150000404040402020202020203030303030371
:10016000010204081020408001020408102001024E
:10017000040810202E1C413311241FBECFEFD8E0FD
:10018000DEBFCDBF26E0A2E7B1E001C01D92AC35D5
:10019000B207E1F711E0A0E0B1E0ECEAF5E702C058
:1001A00005900D92A237B107D9F710E0CBEBD0E064
:1001B00004C02197FE010E948239CA3BD107C9F7CA
:1001C0000E94821D0C94C93A0C9400009091650421
:1001D0009111FCCF91E090936504909364042FEF0C
:1001E0002093630410926204260F2093610490937D
:1001F000600490916004880F892B80936004809143
:100200005F048130F9F410925F0480916004809360
:10021000BB008091BC0083FDF8CF85EC8093BC00CF
:10022000809165048130E1F380916204861710F4B7
:1002300060916204AFE3B4E0EFE1F4E080E08613A4
:1002400003C0089585EEEACF9D9191938F5FF7CF1C
:100250000895089580914D06813061F480914B0698
:1002600090914C06DC01ED91FC910284F385E02D28
:1002700009950895823091F380E0089580914D06AC
:10028000813061F480914B0690914C06DC01ED9138
:10029000FC910084F185E02D09950895823091F359
:1002A00080E008958091190490911A04891B990B9C
:1002B00008958091BA05E091BB05F091BC05F894D2
:1002C0009181282F20959223918378943DE743E0F4
:1002D00050E0315029F1DA011197F1F7908198231C
:1002E000C1F3F8949281922392839181982B918308
:1002F0007894ABE7B7E01197F1F7F89491819223E6
:100300009183A3E1B1E01197F1F79081982381E007
:1003100009F080E07894E3E6F6E03197F1F708958C
:1003200080E008958091E7019091E8010196909313
:10033000E8018093E7010895AF92BF92CF92DF92D8
:10034000EF92FF920F931F93CF93DF936C017B018A
:100350008B01040F151FEB015E01AE18BF08C0171B
:10036000D10759F06991D601ED91FC910190F0818E
:10037000E02DC6010995892B79F7C501DF91CF9151
:100380001F910F91FF90EF90DF90CF90BF90AF90B3
:100390000895FC01538D448D252F30E0842F90E08B
:1003A000821B930B541710F0CF9608950197089570
:1003B000FC01918D828D981761F0A28DAE0FBF2F39
:1003C000B11D5D968C91928D9F5F9F73928F90E08F
:1003D00008958FEF9FEF0895FC01918D828D9817FE
:1003E00031F0828DE80FF11D858D90E008958FEF3B
:1003F0009FEF0895FC01918D228D892F90E0805C04
:100400009F4F821B91098F739927089586E694E088
:100410000E94FA0121E0892B09F420E0822F08953F
:1004200080E090E0892B29F00E94060281110C9453
:1004300000000895FC01A48DA80FB92FB11DA35A87
:10044000BF4F2C91848D90E001968F739927848FF4
:10045000A689B7892C93A089B1898C918370806417
:100460008C93938D848D981306C00288F389E02DB8
:1004700080818F7D80830895EF92FF920F931F9369
:10048000CF93DF93EC0181E0888F9B8D8C8D981347
:100490001AC0E889F989808185FF15C09FB7F89453
:1004A000EE89FF896083E889F9898081837080649F
:1004B00080839FBF81E090E0DF91CF911F910F91EA
:1004C000FF90EF900895F62E0B8D10E00F5F1F4FF9
:1004D0000F731127E02E8C8D8E110CC00FB607FC08
:1004E000FACFE889F989808185FFF5CFCE010E9496
:1004F0001A02F1CFEB8DEC0FFD2FF11DE35AFF4FE8
:10050000F0829FB7F8940B8FEA89FB898081806223
:10051000CFCFCF93DF93EC01888D8823B9F0AA89E0
:10052000BB89E889F9898C9185FD03C0808186FDAE
:100530000DC00FB607FCF7CF8C9185FFF2CF8081FD
:1005400085FFEDCFCE010E941A02E9CFDF91CF9156
:100550000895833081F028F4813099F08230A9F039
:1005600008958730A9F08830C9F08430B1F48091C3
:1005700080008F7D03C0809180008F778093800002
:10058000089584B58F7784BD089584B58F7DFBCFA2
:100590008091B0008F778093B00008958091B00073
:1005A0008F7DF9CF1F93CF93DF93282F30E0F90190
:1005B000E25DFE4F8491F901E05AFE4FD491F901BA
:1005C000E45BFE4FC491CC23A9F0162F81110E9449
:1005D000A902EC2FF0E0EE0FFF1FEC5FFE4FA5919C
:1005E000B4918FB7F894EC91111108C0D095DE2327
:1005F000DC938FBFDF91CF911F910895DE2BF8CF51
:1006000010921A041092190410921C0410921B04E8
:100610001092650481E08093640410925F0461E0AD
:1006200082E10E94D20261E083E10E94D202E9EB02
:10063000F0E080818E7F808380818D7F808388E45D
:100640008093B80085E48093BC0088E291E09093A9
:1006500018048093170489E291E090931604809324
:1006600015040895CF93DF9390E0FC01E05AFE4F0C
:100670002491845B9E4FFC0184918823C9F090E013
:10068000880F991FFC01E650FF4FA591B491FC0122
:10069000EC5FFE4FC591D49161110DC09FB7F894E6
:1006A0008C91209582238C938881282328839FBF57
:1006B000DF91CF910895623051F49FB7F8943C9147
:1006C000822F809583238C93E8812E2BEFCF8FB7D9
:1006D000F894EC912E2B2C938FBFEACF8E3008F03C
:1006E0008E508770806480937C0080917A00806453
:1006F00080937A0080917A0086FDFCCF809178000B
:100700009091790008953FB7F8948091E30190911A
:10071000E401A091E501B091E60126B5A89B05C0D2
:100720002F3F19F00196A11DB11D3FBFBA2FA92F70
:10073000982F8827BC01CD01620F711D811D911D6D
:1007400042E0660F771F881F991F4A95D1F70895D9
:100750008F929F92AF92BF92CF92DF92EF92FF92D1
:100760004B015C010E9483036B017C010E948303A7
:100770006C197D098E099F09683E734081059105BA
:10078000A8F321E0821A9108A108B10888EEC80EEA
:1007900083E0D81EE11CF11C81149104A104B10472
:1007A00029F7FF90EF90DF90CF90BF90AF909F9090
:1007B0008F9008954F925F926F927F928F929F9247
:1007C000AF92BF92CF92DF92EF92FF920F931F935F
:1007D000CF93DF93EC0160919D0570919E05813070
:1007E000910551F06091990570919A05029721F059
:1007F00060919B0570919C0590E080E00E94B3346D
:100800006B017C01C130D10509F471C0229709F454
:1008100071C0C4E6D0E0809196050E946E0362E04C
:1008200070E080E090E00E94A8032197A1F7C4E661
:10083000D0E004E610E0809197050E946E0362E02C
:1008400070E080E090E00E94A8030150110999F740
:10085000CC59DF4F04E610E0809198050E946E03AA
:1008600062E070E080E090E00E94A803015011096E
:1008700099F7CC59DF4FBE0190E080E00E94B3347D
:100880004B015C01A70196010E9405342B013C013C
:10089000A701960160E070EC8FE794E40E94933327
:1008A0009B01AC01C301B2010E94B8356B017C0110
:1008B000A501940160E070EC8FE794E40E9493330B
:1008C0009B01AC01C701B6010E940534DF91CF91B5
:1008D0001F910F91FF90EF90DF90CF90BF90AF905E
:1008E0009F908F907F906F905F904F900895D0E091
:1008F000C0E09FCFD0E0C0E0ADCF2FB7F8946091BB
:10090000DF017091E0018091E1019091E2012FBF40
:100910000895089585ED8093BC008091BC0084FD0E
:10092000FCCF1092650408952091BB01260F332758
:10093000331F21323105ECF420916504FC0190E075
:1009400080E0243069F082E00895A091BB012191FC
:10095000AC0145565E4FA40FB52FB11D2C930196E7
:10096000861798F38091BB01680F6093BB0180E00C
:10097000089581E008950895E0911A048091190482
:10098000E81730F4F0E0E15EFB4F808190E00895DD
:100990008FEF9FEF089590911A04809119042FEF23
:1009A0003FEF981748F4E92FF0E0E15EFB4F20811C
:1009B00030E09F5F90931A04C9010895CF92DF92AF
:1009C000EF92FF920F931F93CF93DF937C01CB01A4
:1009D0008A0120911E04222389F0EB016B01C40ED1
:1009E000D51ECC15DD0569F06991D701ED91FC911B
:1009F0000190F081E02DC7010995F3CF642F0E948B
:100A00009404C801DF91CF911F910F91FF90EF9057
:100A1000DF90CF900895CF93DF931F92CDB7DEB7CD
:100A2000698320911E042223F9F020911B042032B7
:100A300058F021E030E0FC013383228390E080E035
:100A40000F90DF91CF91089580911C04E82FF0E082
:100A5000E558FE4F998190838F5F80931C048093AB
:100A60001B0481E090E0ECCF61E0CE0101960E9492
:100A70009404F7CF20911B0481E0213208F044C098
:100A8000809165048111FCCF80911D0492E09093C8
:100A9000650491E0909364049FEF90936304109237
:100AA000620420936104ABE7B1E0EFE3F4E090E08F
:100AB000291331C01092600490916004880F892B33
:100AC0008093600480915F04813049F510925F0447
:100AD000809160048093BB008091BC0083FDF8CFBF
:100AE00085EC8093BC00809165048230E1F38091B5
:100AF00063048F3FB1F0809163048032A1F0809154
:100B00006304803391F084E010921C0410921B0463
:100B100010921E0408953D9131939F5FC9CF85EED9
:100B2000E0CF80E0F1CF82E0EFCF83E0EDCFCF9355
:100B3000CFB7F89480917A01811127C0E6E5F1E002
:100B40008491EAE6F1E09491E82FF0E0EE0FFF1FC8
:100B5000E650FF4FA591B491EC91E92321F461E0B7
:100B60008AE00E94D20261E08AE00E9432038CB5E2
:100B700080618CBD8CB580648CBD61E08DE00E948D
:100B8000320361E08BE00E94320380917A018F5F33
:100B900080937A01CFBFCF91089590E080E00895CF
:100BA000FC01DB0112968D919C91139793838283B4
:100BB00088E491E09183808314968C9114978483C8
:100BC00015968C911597858316964D915D916D9133
:100BD0007C91199746835783608771871A964D9148
:100BE0005D916D917C911D974287538764877587CE
:100BF0001E964D915D916D917C91519746875787D7
:100C0000608B718B52968C915297828B53964D913B
:100C10005D916D917C915697438B548B658B768B50
:100C200057964D915D916D917C915A97478B508F5E
:100C3000618F728F5B968D919C91948F838F0895B5
:100C40000895DC015996ED91FC913097B9F08389B4
:100C50009489A589B6894285538564857585841BE9
:100C6000950BA60BB70B811520E89207A105B105DE
:100C700038F08FEF9FE7A0E0B0E0089590E080E0CB
:100C80000895DC0159968D919C91009739F0DC0113
:100C9000ED91FC910480F581E02D099490E080E0D5
:100CA0000895CF93DF931F92CDB7DEB76983DC0140
:100CB000ED91FC910280F381E02D41E050E0BE0116
:100CC0006F5F7F4F09950F90DF91CF9108959CB58D
:100CD000937F892B8CBD0895CF93C82F8CB58F7DC2
:100CE0008CBD80E00E9467068CB58C7F8CBD8DB575
:100CF00081608DBD6C2F8091FA050E94D202809197
:100D00000C0690910D068230910538F0880F991FDE
:100D1000880F991F05970197F1F7CF9108950895CE
:100D200061E0FC0184810E94D202809172018111F4
:100D30001092720108958EBD00000DB407FEFDCF24
:100D40008EB50895CF92DF92EF92FF920F931F938B
:100D5000CF93DF939091DD059F3F51F4DF91CF91C9
:100D60001F910F91FF90EF90DF90CF900C949B0616
:100D7000D82EF12CC7E0D0E001E010E0FF0C60E0DD
:100D80008091DD050E94D202B8010C2E01C0660FD1
:100D90000A94EAF76D218091DB050E94D20261E09E
:100DA0008091DD050E94D2022091DC0530E0F9013E
:100DB000E25DFE4F8491F901E05AFE4FE490F901A3
:100DC000E45BFE4FC490CC2081F081110E94A90207
:100DD000EC2DF0E0EE0FFF1FEE5BFE4FA591B491FE
:100DE000EC91EE2211F06894F0F8219708F0C6CF4C
:100DF0008F2DDF91CF911F910F91FF90EF90DF909A
:100E0000CF900895CF93DF93D82FC62F8091B5054B
:100E10008823D1F081E080931E0483E580931D0434
:100E200010921C0410921B046D2F83E095E00E9429
:100E30000B056C2F83E095E00E940B0583E095E0A5
:100E4000DF91CF910C943A058CE00E94670660E038
:100E50008091B3050E94D2028D2F0E949B068C2F99
:100E60000E949B0661E08091B305DF91CF910C94C5
:100E7000D202EF92FF920F931F93CF93DF93D82F5D
:100E80008B017A018CE00E946706CD2FC06801308B
:100E9000110511F0CD2FC06C60E08091B3050E9468
:100EA000D2028C2F0E949B06E7010E0D1F1D80E0D1
:100EB0000E949B0689930C171D07C9F761E080917A
:100EC000B305DF91CF911F910F91FF90EF900C949C
:100ED000D202CF93DF93C82FD62F80E00E946C06FA
:100EE0008C2F80620E949B06C82F8D2F0E949B062C
:100EF00081E00E946C068C2FDF91CF910895EF92D4
:100F0000FF920F931F93CF93DF93C82F7B01142F72
:100F100080E00E946C068C2F80620E949B06082F46
:100F2000E701115020F089910E949B06FACF81E0E1
:100F30000E946C06802FDF91CF911F910F91FF903F
:100F4000EF900895CF93C82F80E00E946C068C2FFD
:100F50000E949B068FEF0E949B06C82F81E00E9493
:100F60006C068C2FCF9108950F931F93CF938C0114
:100F700086E00E94A207C82FC77D02301105E1F468
:100F8000C0628BE990E0A0E0B0E080930806909307
:100F90000906A0930A06B0930B066C2F86E00E9408
:100FA000690786E00E94A20791E0C81390E0892FAC
:100FB000CF911F910F91089585E590E0A0E0B0E0FA
:100FC0000130110511F7C86081E490E0A0E0B0E0C5
:100FD000DCCFCF93C82F80E00E946C068C2F0E943C
:100FE0009B06C82F81E00E946C068C2FCF9108953C
:100FF000CF92DF92EF92FF920F931F93CF93DF93E5
:101000007C01C091FF05DC2FCF3108F0DEE180913B
:101010000006CD1B8111C0E080E00E946C0680EAD2
:101020000E949B068701D15030F0F80181918F0119
:101030000E949B06F8CFC15020F080E00E949B06E2
:10104000FACF81E00E946C068091F8059091F90535
:101050002091FA053091FB058217930719F061E0A2
:101060000E94D2020E947D046B017C018FEF0E94DE
:10107000E9078073C1F40E947D046C197D098E0913
:101080009F09603671058105910580F381E08093A9
:10109000070680E0DF91CF911F910F91FF90EF90B5
:1010A000DF90CF9008958091F8059091F9052091F7
:1010B000FA053091FB058217930719F060E00E9452
:1010C000D20260E787E00E94690784FF04C081EED6
:1010D0000E94E907DECF81E0DDCF8FEF0C949B0605
:1010E0000F931F93CF93DF93EC010E947D048B013C
:1010F0000E946D088F3F69F00E947D04601B710B98
:101100006C177D07A8F380E0DF91CF911F910F91BD
:10111000089581E0F9CF8CBD9DBD0895CF93DF93F5
:10112000D82FC62F8091DA058F3F59F58091C905D8
:101130009091CA052091D10531E030931E0420938F
:101140001D0410921C0410921B04DC01ED91FC9113
:101150000190F081E02D6D2F09958091C905909146
:10116000CA05DC01ED91FC910190F081E02D6C2F1E
:1011700009958091C9059091CA05DF91CF910C9492
:101180003A058091DD058F3F21F482E591E00E94D0
:101190008B0860E08091DA050E94D2028D2F8F7754
:1011A0000E94A2068C2F0E94A20661E08091DA05BF
:1011B000DF91CF910C94D202CF93DF93C7EFD5E0AC
:1011C0008770886E8883E6EFF5E0962F9770990F09
:1011D000990F990F8081807C242F2770892B822B77
:1011E000808395E0440F551F9A95E1F787FB882788
:1011F00080F9482B660F771F660F771F642B85EFEA
:101200000E948E088881682F677090E2699FB00104
:101210001124282F269526952695277094E0299F3E
:1012200090011124622B8295869586958370682B98
:1012300084EFDF91CF910C948E08CF93DF93EC0174
:1012400080917201811109C081E0809372018091C7
:101250000F05909110050E948B0860E08C81DF9152
:10126000CF910C94D2028F929F92AF92BF92FF9235
:101270000F931F93CF93DF93EC01F62E49015A0190
:101280008E81882389F08F8198859C012F5F3F4F45
:1012900038872F838230924018F40E946D08F3CF74
:1012A000CE010E9490061E82CE010E941D098CE292
:1012B00091E00E9470088F2D80640E949B0608E1D7
:1012C00010E0D501C401002E04C0B695A7959795EE
:1012D00087950A94D2F70E949B0608501109083F8F
:1012E0008FEF180771F785E9FF2021F028E087E8E4
:1012F000F2128FEF0E949B0610E00E946D088A8711
:1013000087FF04C01F3F11F01F5FF7CFDF91CF9120
:101310001F910F91FF90BF90AF909F908F90089575
:10132000AF92BF92CF92DF92EF92FF920F931F93F3
:10133000CF93DF93EC016901C801820F931F8130C5
:10134000924050F58E81882379F088819981AA8115
:10135000BB8184179507A607B70731F48F8198855D
:10136000C816D90608F042C0488359836A837B8334
:101370008B85833039F089E0440F551F661F771F36
:101380008A95D1F79A01AB0161E1CE010E94330940
:10139000882389F083E08D83CE010E94900680E04F
:1013A000DF91CF911F910F91FF90EF90DF90CF9041
:1013B000BF90AF9008950E947D045B010E946D086C
:1013C0008A878F3F69F40E947D046A197B096D3218
:1013D0007140A0F38FE08D83CE010E949006DCCF98
:1013E0008E3F89F418861F8281E08E838F819885D5
:1013F0008C159D0550F40E946D088F81988501968B
:1014000098878F83F3CF8DE0E6CF6701E00EF11E62
:101410000E946D08F60181936F01EE15FF05C1F77B
:101420008F819885080F191F18870F838985882356
:1014300019F001151240A0F08E81882389F08F8168
:1014400098859C012F5F3F4F38872F8382309240D1
:1014500018F40E946D08F3CFCE010E9490061E8200
:1014600081E09ECFCF92DF92EF92FF920F93CF93C6
:10147000DF93EC01690182E14115510561057105B8
:1014800099F08B85833039F089E0440F551F661F32
:10149000771F8A95D1F79A01AB0168E1CE010E94CE
:1014A0003309882319F084E08D832DC08EEF0E94CC
:1014B0009B0676018EEFD81AF70181917F010E9479
:1014C0009B06EC14FD04C1F78FEF0E949B068FEF83
:1014D0000E949B060E946D088A878F71853071F487
:1014E000011116C0CE010E94900681E0DF91CF91DC
:1014F0000F91FF90EF90DF90CF90089581E18D8361
:10150000CE010E949006CE010E94900680E0EECFB0
:1015100088E592E00E947008811102C085E1C4CF85
:1015200020E030E0A9016DE0CE010E94330988235C
:1015300011F084E1B9CF0E946D088111FACFD2CFAA
:101540000F934091740150917501609176017091F3
:101550007701411551056105710599F0082F23E1C7
:1015600032E080911304909114040E94320A88237F
:1015700049F0109274011092750110927601109248
:10158000770181E00F9108950F93CF93C82F809139
:101590007301811105C0C1E08C2FCF910F91089587
:1015A000409100015091010160910201709103018D
:1015B0000C2F23E132E080911304909114040E94D7
:1015C000320A811102C0C0E0E7CFCC2321F381E0D1
:1015D0000E94A00A8823B9F310927301DDCF8F9285
:1015E0009F92AF92BF92EF92FF920F931F93CF9370
:1015F0004B015C01C42F8091000190910101A091E9
:101600000201B091030188159905AA05BB0551F1A6
:1016100081E00E94C40A81110BC080E0CF911F912C
:101620000F91FF90EF90BF90AF909F908F90089593
:1016300083E1E82E82E0F82E00E012E030E020E0C6
:10164000B501A40180911304909114040E949009A3
:10165000882319F38092000190920101A092020167
:10166000B0920301409173014C2B4093730181E0D0
:10167000D5CF8F929F92AF92BF92CF92DF92EF928F
:10168000FF92CF9321E135E03093140420931304AB
:10169000882309F46DC040E060E070E0CB010E9457
:1016A000EF0A81110BC080E0CF91FF90EF90DF90A7
:1016B000CF90BF90AF909F908F9008958091D1036D
:1016C0008F7789F78091DD039091DE03A091DF038E
:1016D000B091E00384369105A105B10520F3C090D7
:1016E000D903D090DA03E090DB03F090DC03C1145F
:1016F000D104E104F104B9F240E0C701B6010E944F
:10170000EF0A882381F280911E0290911F028115B9
:10171000924049F6A0912302AA2329F26091210266
:10172000709122026115710509F4BDCF209120024C
:10173000222309F4B8CFA0932F052093210590E030
:1017400080E030E0E1E0F0E0C82FAF01082E02C0F9
:10175000440F551F0A94E2F72417350769F041E05A
:10176000480F01968930910579F740932A059BCF60
:10177000C12CD12C7601C0CF80932A05209129025B
:1017800030912A0250E040E02115310541F42091CA
:101790003702309138024091390250913A02209339
:1017A00022053093230540932405509325054601D7
:1017B0005701860E971EA11CB11C80923005909295
:1017C0003105A0923205B0923305E0912402F091E8
:1017D0002502F0933605E0933505B0E00E942338EA
:1017E000DC01CB01880D991DAA1DBB1D8093370517
:1017F00090933805A0933905B0933A0525E0EE0F94
:10180000FF1F2A95E1F7E150FE4FEF2FFF27E695E6
:101810008E0F9F1FA11DB11D80932B0590932C054A
:10182000A0932D05B0932E0580902602909027025C
:10183000B12CA12C8114910441F48090330290903A
:101840003402A0903502B0903602C81AD90AEA0ACA
:10185000FB0AC80CD91CEA1CFB1C04C0F694E794D4
:10186000D794C794CA95D2F7C0922605D09227057F
:10187000E0922805F092290585EFC8168FE0D8067A
:10188000E104F10428F48CE08093340581E00CCF6E
:1018900080E125EFC2162FEFD206E104F104A0F398
:1018A00080913F0290914002A0914102B09142028A
:1018B0008093370590933805A0933905B0933A0586
:1018C00080E2E2CF4F925F926F927F928F929F92CF
:1018D000AF92BF92CF92DF92EF92FF920F931F933E
:1018E000CF93DF93EC01423051056105710590F40F
:1018F00080E0DF91CF911F910F91FF90EF90DF90EB
:10190000CF90BF90AF909F908F907F906F905F909F
:101910004F90089589859A85AB85BC850196A11D58
:10192000B11D84179507A607B70710F3CB88DC888D
:10193000ED88FE888F89803109F042C0BB27A72F30
:10194000962F852F480159012A013B01C80ED91E47
:10195000EA1EFB1E8091000190910101A0910201FD
:10196000B0910301C816D906EA06FB0699F58F89DE
:101970008031C1F5B301A201552766277727440FAF
:10198000551F4D5E5D4FFA019182808280917301F7
:101990008160809373018A89823080F08D819E817D
:1019A000AF81B8858C0D9D1DAE1DBF1D8093740148
:1019B00090937501A0937601B093770181E099CF60
:1019C000DB01CA01E7E0B695A79597958795EA955B
:1019D000D1F7B8CF40E0C701B6010E94EF0A8111EC
:1019E000C6CF86CFB301A2014F7755276627772749
:1019F000440F551F440F551F4D5E5D4FFA01808205
:101A00009182A282B382C2CF8F929F92AF92BF92F5
:101A1000CF92DF92EF92FF920F931F93CF93DF93BA
:101A2000FC0181859285A385B4850196A11DB11D18
:101A300084179507A607B70770F480E0DF91CF9170
:101A40001F910F91FF90EF90DF90CF90BF90AF90DC
:101A50009F908F90089583889488A588B6888789F9
:101A6000803189F5BB27A72F962F852FE9016A01C1
:101A70007B018F01BC01CD01680D791D8A1D9B1D65
:101A80008090000190900101A0900201B0900301AC
:101A900086169706A806B90601F5F80187898031F0
:101AA00011F5DD24EE24FF24F601EE0FFF1FED5E9D
:101AB000FD4F80819181B0E0A0E088839983AA8363
:101AC000BB8381E0BBCFDB01CA01C7E0B695A79518
:101AD00097958795CA95D1F7C9CF40E00E94EF0A44
:101AE0008111DBCFAACFE894C7F8DD24EE24FF24D0
:101AF000F601EE0FFF1FEE0FFF1FED5EFD4F808121
:101B00009181A281B381BF70D8CF4F925F926F92C3
:101B10007F92AF92BF92CF92DF92EF92FF920F939C
:101B20001F93CF93DF9300D000D0CDB7DEB78C01E9
:101B300049835A836B837C835901C12CD12C760154
:101B4000412C82E0582E612C712C49815A816B8185
:101B50007C819E012F5F3F4FC8010E94040D8823A6
:101B600039F1F8018585A301920104C0220F331FCA
:101B7000441F551F8A95D2F7DA01C901C80ED91E34
:101B8000EA1EFB1E49815A816B817C8187898031E5
:101B900011F188EF9FEFAFEFBFE0481759076A07D1
:101BA0007B0798F2F501C082D182E282F38281E064
:101BB0000F900F900F900F90DF91CF911F910F9189
:101BC000FF90EF90DF90CF90BF90AF907F906F909D
:101BD0005F904F90089588EF9FEFA0E0B0E0DDCFD9
:101BE000CF93DF93FC012581222321F080E0DF9158
:101BF000CF910895EC0180913405803159F582E050
:101C00008583178A108E118E128E809135059091E2
:101C10003605B0E0A0E025E0880F991FAA1FBB1F82
:101C20002A95D1F7838B948BA58BB68B8DE195E0AC
:101C30009C8F8B8F81E08C831E821F821886198671
:101C40001A861B861C861D861E861F86188A198A80
:101C50001A8ACDCF803251F683E0858340913705D3
:101C6000509138056091390570913A05478B508F36
:101C7000618F728F9F012D5E3F4F8DE195E00E9435
:101C8000850D8111D3CFB2CF8F929F92AF92BF9229
:101C9000CF92DF92EF92FF920F931F93CF93DF9338
:101CA000EC018D8181110EC080E0DF91CF911F91F9
:101CB0000F91FF90EF90DF90CF90BF90AF909F90EB
:101CC0008F9008950B891C892D893E89041715076B
:101CD0002607370748F34A015B01823031F48A86D0
:101CE0009B86AC86BD8681E0E0CF81149104A1047F
:101CF000B10449F41E821F82188619861A861B8633
:101D00001C861D86F0CF0A851B852C853D85EB8DB5
:101D1000FC8D858590E00996B901A80141505109D3
:101D200061097109082E04C0769567955795479506
:101D30000A94D2F775016401E1E0CE1AD108E108F6
:101D4000F10804C0F694E794D794C7948A95D2F723
:101D5000C416D506E606F70620F0012B022B032B4E
:101D600011F58F89988DA98DBA8D8E839F83A88751
:101D7000B9878E010A5F1F4FC114D104E104F10439
:101D800009F4ADCF4E815F816885798598018B8D8F
:101D90009C8D0E94040D91E0C91AD108E108F10858
:101DA0008111EACF81CFC41AD50AE60AF70AE1CF3A
:101DB0003F924F925F926F927F928F929F92AF92DB
:101DC000BF92CF92DF92EF92FF920F931F93CF9328
:101DD000DF93CDB7DEB72C970FB6F894DEBF0FBEFA
:101DE000CDBF5C01DC015B968D909C905C97169654
:101DF0004D905D906D907C90199741145104610451
:101E0000710409F468C0BFEF4B1A5B0A6B0A7B0AC6
:101E1000312CF40181859285A385B4859C01AD01A7
:101E20002F5F3F4F4F4F5F4F29873A874B875C8724
:101E3000730162011D821E821F821886F401818552
:101E40009285A385B4852D813E814F8158852817C1
:101E500039074A075B0708F056C089859A85AB8524
:101E6000BC858C159D05AE05BF0550F482E0C82EDB
:101E7000D12CE12CF12C92E0492E512C612C712CAB
:101E80009E012F5F3F4FB701A601C4010E94040DC0
:101E90008823C9F189819A81AB81BC81892B8A2BE6
:101EA0008B2B09F1260137019FEF491A590A690A5C
:101EB000790A2D813E814F8158852F5F3F4F4F4FCB
:101EC0005F4F2D833E834F8358873FEFC31AD30A5A
:101ED000E30AF30AB3CFF40140805180628073803B
:101EE0003324339496CFC414D504E604F70409F7D9
:101EF0000FEF1FEF2FEF3FE0B701A601C4010E94D3
:101F0000620C811119C080E02C960FB6F894DEBFE8
:101F10000FBECDBFDF91CF911F910F91FF90EF903A
:101F2000DF90CF90BF90AF909F908F907F906F90F9
:101F30005F904F903F900895D50116964D915D9119
:101F40006D917C911997411551056105710539F025
:101F500097018601C4010E94620C8823A1F2D50179
:101F60001696CD92DD92ED92FC921997332051F0A6
:101F7000D701C6010196A11DB11DF4018083918393
:101F8000A283B383F5018789908DA18DB28D892BB2
:101F90008A2B8B2B39F48481C78AD08EE18EF28E06
:101FA00080688483F50184818062848381E0ACCF82
:101FB0002F923F924F925F926F927F928F929F9259
:101FC000AF92BF92CF92DF92EF92FF920F931F9347
:101FD000CF93DF9300D01F92CDB7DEB7FC01858190
:101FE000811118C08FEF9FEF0F900F900F90DF912E
:101FF000CF911F910F91FF90EF90DF90CF90BF9006
:10200000AF909F908F907F906F905F904F903F9098
:102010002F900895848180FFE5CF43895489658995
:10202000768982859385A485B585312C212C481726
:1020300059076A077B0719F022242394312C6F017A
:102040002101CE0101963C01DF011696BB83AA83D4
:102050004114510409F4C5C0F601428553856485D5
:1020600075854A01F1E09F22D6015B968D919C9186
:102070005C978A019B01E9E03695279517950795AE
:10208000EA95D1F71596EC91E230E9F5FC01628D05
:10209000738D848D958D600F711F821F931FA12CEE
:1020A00022E0B22EA818B9084A145B0408F45201C1
:1020B000F601248126FD04C0A114F2E0BF0671F4EC
:1020C0000091000110910101209102013091030162
:1020D000061717072807390709F05EC040E00E947D
:1020E000EF0A882309F47ECFC4018D5E9D4FD30192
:1020F0009C012A0D3B1DFC012E173F0709F46CC003
:1021000041914D93F9CFDC011496BC90BA94B02262
:102110008114910479F4B1100DC0452B462B472B47
:1021200069F5F6018789908DA18DB28D868397839D
:10213000A087B187D6015B96ED91FC915C971696CE
:102140006D917D918D919C911997625071098109D2
:102150009109258504C0660F771F881F991F2A954E
:10216000D2F70685178520893189600F711F821F7C
:10217000931F6B0D711D811D911D91CFD601169678
:102180004D915D916D917C9119972A813B810E94BF
:10219000040D8111CFCF26CF730185019401AB01CE
:1021A000BC0180911304909114040E94900988232B
:1021B00009F418CF6A0C7B1CF60182859385A485EF
:1021C000B5858A0D9B1DA11DB11D82879387A487AC
:1021D000B5874A185B083CCF281B390B620E731E6B
:1021E000EBCF2A94232809F0FDCE898190E0FCCE24
:1021F000FC01818D928D009711F00C94D80F8FEF18
:102200009FEF08950F931F93CF93DF93EC01898D78
:102210009A8D10E000E0009799F00E94D80F8C0191
:102220000F3F100769F0898D9A8DFC014285538517
:102230006485758541505109610971090E94440EF8
:10224000C801DF91CF911F910F9108951F93CF93F4
:10225000DF93FC0125812223D1F1162FEC0184812B
:1022600087FF2AC0668577858089918941E00E9431
:10227000EF0A882361F1EA8980E2E89FF0011124E6
:10228000ED5EFD4F309719F18D81823040F48B89DE
:102290009C89AD89BE89848F958FA68FB78F8F89D2
:1022A000988D938F828F8F89988DA98DBA8DB58BDC
:1022B000A48B8C818F778C83111103C08C818F7ECE
:1022C0008C83812FDF91CF911F910C94C40A80E001
:1022D000DF91CF911F910895FF920F931F93CF939A
:1022E000DF93EC018D81813041F090E080E0DF915F
:1022F000CF911F910F91FF9008958C8181FFF5CFB1
:1023000082FD1BC00091130410911404C8010E94A7
:102310001D090E946D08F82EC8010E9490068FEFDB
:10232000F812E3CF8C8185FF1BC060E0CE010E94D4
:1023300026118C818F7D8C83D8CF4B895C896D89E8
:102340007E898A859B85AC85BD8584179507A60700
:10235000B707C1F2CE010E94440E8111D3CFC5CF81
:1023600040917401509175016091760170917701EF
:10237000452B462B472B21F080E00E94A00AB5CFC9
:1023800080618C832A853B85317080E092E0821BDE
:10239000930BADCFCF93DF93EC0161E00E94261148
:1023A000882311F01D8281E0DF91CF910895FC0117
:1023B000818D928D009719F061E00C94261108959B
:1023C0002F923F924F925F926F927F928F929F9245
:1023D000AF92BF92CF92DF92EF92FF920F931F9333
:1023E000CF93DF9300D000D01F92CDB7DEB77C0132
:1023F0005B01342E5D83DC0115968C91159781303D
:1024000009F0CEC014962C9021FECAC022FCB4C0A4
:10241000C32CDD8022947FE027222094B22DB1705E
:102420002B2ED7011A964D915D916D917C911D9740
:10243000C114D10409F428C15B968D919C915C97DD
:10244000FC0174807A948A019B0169E03695279596
:10245000179507956A95D1F770228A01117071104E
:1024600020C001151105E9F416964D915D916D910D
:102470007C911997411551056105710509F099C0C5
:1024800057968D919D910D90BC91A02D0097A1051F
:10249000B10509F0B0C0C7010E94D80E882309F425
:1024A0007FC080E092E0801B910B46018C159D055A
:1024B00008F44C01D7015B964D915C915C971696A0
:1024C0008D919D910D90BC91A02D0297A109B1090C
:1024D000FA01258504C0880F991FAA1FBB1F2A95E2
:1024E000D2F74685578560897189840F951FA61F8D
:1024F000B71F9C01AD01270D311D411D511D290143
:102500003A01811432E0930609F07BC0809100010A
:1025100090910101A0910201B091030184159505EC
:10252000A605B70559F48FEF9FEFDC0180930001FA
:1025300090930101A0930201B0930301022D950134
:10254000B301A20180911304909114040E94320AF5
:10255000882331F19EEFB91AC818D908F70182858E
:102560009385A485B585880D991DA11DB11D828710
:102570009387A487B58755CFF70143895489658927
:10258000768982859385A485B585481759076A079A
:102590007B0709F43DCFC7010E94440E811138CF5B
:1025A00081E090E0D70113969C938E93129780E080
:1025B00007C09E012F5F3F4F0E94040D811102C092
:1025C00090E079C089819A81AB81BC81F701238D2C
:1025D000348DF901278948EF5FEF60E070E020312A
:1025E00021F048EF5FEF6FEF7FE084179507A607B4
:1025F000B70708F050CFF70186839783A087B1878C
:1026000050CF0115110599F5D7011A964D915D919D
:102610006D917C911D9753968D919D910D90BC91DC
:10262000A02D481759076A077B0708F181E00E942F
:10263000C40A882309F4B4CF4092000150920101EA
:102640006092020170920301809173018160809316
:102650007301C8018D5E9D4FD5019C01280D391D68
:10266000FC012E173F0759F04D914193FACF41E0FD
:10267000C301B2010E94EF0A8111EBCF91CF281B59
:10268000390BA20EB31E68CFF70183899489A589FF
:10269000B68984179507A607B70738F48481438B5A
:1026A000548B658B768B80688483F701848183FDEE
:1026B0001AC0832D9D810F900F900F900F900F9057
:1026C000DF91CF911F910F91FF90EF90DF90CF900E
:1026D000BF90AF909F908F907F906F905F904F9042
:1026E0003F902F90089561E0C7010E942611882332
:1026F00009F456CFDECFCF93DF931F92CDB7DEB76D
:10270000698341E050E0BE016F5F7F4F0E94E0119E
:102710000F90DF91CF910895CF93DF93EC01E98D76
:10272000FA8D309749F481E090E09B838A8390E0B2
:1027300080E0DF91CF91089513821282898D9A8D66
:102740000E94E011E98DFA8D22813381232B59F704
:10275000F0CFCF92DF92EF92FF920F931F93CF9320
:10276000DF9328E030E041E06FEF70E09FE0C92E9A
:10277000D12CC3E2D0E007ED10E09091BA05E091D2
:10278000BB05F091BC05F92EF094582F5423F1F0BD
:10279000F89452815F2152835181592B5183DE017C
:1027A0001197F1F75281952B92837894F801319724
:1027B000F1F7440F2150310901F7DF91CF911F91BB
:1027C0000F91FF90EF90DF90CF900895F894528191
:1027D0005F2152835181592B5183DB011197F1F70E
:1027E0005281952B92837894F601E1CFCF92DF92BC
:1027F000FF920F931F93CF93DF938B016A0191E0B8
:1028000090931E0493E590931D0410921C04109263
:102810001B04682F83E095E00E940B0583E095E0A0
:102820000E943A05602F83E50E94E600F82E109280
:102830001A0480931904E601CE018C199D09209198
:102840001A04F21631F083E095E00E94CB048993DC
:10285000F3CF0817190729F010929F0581E08093A4
:10286000A005DF91CF911F910F91FF90DF90CF9046
:102870000895862F642F0E94E60010921A04809318
:1028800019040895CF93DF93C82F8091DA058F3F05
:1028900009F047C08091C9059091CA052091D105E2
:1028A00031E030931E0420931D0410921C041092FA
:1028B0001B04DC01ED91FC910190F081E02D6C2F67
:1028C00009958091C9059091CA050E943A0542E098
:1028D0006091D1058091C9059091CA050E94391473
:1028E0008091C9059091CA05DC01ED91FC910284AB
:1028F000F385E02D0995C82F8091C9059091CA05EF
:10290000DC01ED91FC910284F385E02D099520E036
:102910003C2FE901C82BD92B9C2F8D2FDF91CF9114
:1029200008958091DD058F3F21F482E591E00E94BA
:102930008B0860E08091DA050E94D2028C2F0E9401
:10294000A20680E00E94A206C82F80E00E94A20694
:10295000DC2FC82F61E08091DA050E94D202DCCF23
:102960008F929F92AF92BF92CF92DF92EF92FF929F
:10297000F82E8091DA058F3F09F070C08091C9056B
:102980009091CA052091D10531E030931E04209327
:102990001D0410921C0410921B04DC01ED91FC91AB
:1029A0000190F081E02D6F2D09958091C9059091DE
:1029B000CA050E943A0543E06091D1058091C9059E
:1029C0009091CA050E9439148091C9059091CA0559
:1029D000DC01ED91FC910284F385E02D09954C0119
:1029E000990FAA08BB08BA2CA92C982C882480918E
:1029F000C9059091CA05DC01ED91FC910284F38533
:102A0000E02D0995092E000CAA0BBB0B882A992AE8
:102A1000AA2ABB2ABA2CA92C982C88248091C905F3
:102A20009091CA05DC01ED91FC910284F385E02DC3
:102A30000995092E000CAA0BBB0B6C017D01C8285F
:102A4000D928EA28FB28C701B601FF90EF90DF9054
:102A5000CF90BF90AF909F908F9008958091DD05AB
:102A60008F3F21F482E591E00E948B0860E0809125
:102A7000DA050E94D2028F2D0E94A20680E00E94F9
:102A8000A20690E0B0E0A0E0CC24D82EE92EFA2EE9
:102A900080E00E94A206C82AFE2CED2CDC2CCC245F
:102AA00080E00E94A206C82A61E08091DA050E94B7
:102AB000D202C9CFCF92DF92EF92FF921F93CF93B2
:102AC000DF93EC0180E2689FF0011124ED5EFD4F81
:102AD0009385917161F0842F827449F080E0DF91D9
:102AE000CF911F91FF90EF90DF90CF900895142F1A
:102AF0006A8B8091000190910101A0910201B09137
:102B000003018E879F87A88BB98BC488D588F12C49
:102B1000E12C7601DD24CC24CF8AD88EE98EFA8E82
:102B2000828D938DB0E0A0E0AC01BD014C295D2900
:102B30006E297F294F8B588F698F7A8F8385887193
:102B4000B1F4848D958DA68DB78D8B8B9C8BAD8BC1
:102B5000BE8B81E08D831F701C831E821F821886AE
:102B600019861A861B861C861D8681E0B8CF8031A7
:102B700009F0B4CF9E012D5E3F4F8B8D9C8D0E943E
:102B8000850D882309F4AACF84E0E4CFFB010190EE
:102B90000020E9F73197AF01461B570B0C948C13BB
:102BA0008F929F92AF92BF92EF92FF920F931F93DB
:102BB000CF93DF93CDB7DEB7A1970FB6F894DEBF02
:102BC0000FBECDBF7C01FA01CB0119A2223008F45F
:102BD0002AE08E010F5D1F4F822E912CB12CA12C6B
:102BE000BF01A50194010E94D337F901CA016A30DF
:102BF0000CF5605DD8016E938D01232B242B252BC2
:102C000079F790E080E0109721F0BD01C7010E94A4
:102C1000C615A1960FB6F894DEBF0FBECDBFDF91EB
:102C2000CF911F910F91FF90EF90BF90AF909F9029
:102C30008F900895695CDECFCF92DF92EF92FF9282
:102C40000F931F93CF93DF936B01770FEE08FF086D
:102C5000F7FE1BC0EC016DE20E9451068C01442777
:102C60005527BA014C195D096E097F092AE0CE018A
:102C70000E94D015800F911FDF91CF911F910F916E
:102C8000FF90EF90DF90CF9008952AE0B701A60162
:102C9000DF91CF911F910F91FF90EF90DF90CF9038
:102CA0000C94D01560E571E00C94C6154F925F92BC
:102CB0006F927F928F929F92AF92BF92CF92DF924C
:102CC000EF92FF921F93CF93DF93EC016A017B0198
:102CD000822EAB019601CB01B6010E94753662E5EA
:102CE00071E0811126C026013701E89477F82FEFB3
:102CF0003FEF4FE75FE7C301B2010E9475368111D4
:102D00000CC02FEF3FEF4FE75FE7C301B2010E9416
:102D1000003466E571E0181664F02FEF3FEF4FE7DF
:102D20005FE4C701B6010E94B3351816A4F46AE542
:102D300071E0CE01DF91CF911F91FF90EF90DF9076
:102D4000CF90BF90AF909F908F907F906F905F904B
:102D50004F900C94C6152FEF3FEF4FE75FECC70184
:102D6000B6010E94003487FDE2CF20E030E0A901E7
:102D7000C701B6010E940034B12CA12C87FF09C005
:102D80006DE2CE010E9451065C01F7FAF094F7F86B
:102D9000F094182D60E070E080E09FE3912C20E03B
:102DA00030E040E251E40E94053493949814B8F363
:102DB000A70196010E9494332B013C010E947E34AE
:102DC0006B017C010E94B3349B01AC01C301B201D1
:102DD0000E9493332B013C012AE0B701A601CE01EA
:102DE0000E94D0157C016EE2CE010E945106E80ED1
:102DF000F91EEA0CFB1C115020F120E030E040E20B
:102E000051E4C301B2010E94B8352B013C010E947C
:102E10007E344B01B12CA12C2AE0B501A401CE01D6
:102E20000E94D015E80EF91EC501B4010E94B3340A
:102E30009B01AC01C301B2010E9493332B013C0101
:102E4000DACFC701DF91CF911F91FF90EF90DF9014
:102E5000CF90BF90AF909F908F907F906F905F903A
:102E60004F9008953F924F925F926F927F928F9210
:102E70009F92AF92BF92CF92DF92EF92FF920F9309
:102E80001F93CF93DF93CDB7DEB72B970FB6F89490
:102E9000DEBF0FBECDBF7C01FE013196CE010C9688
:102EA0006F0130E23193E817F907E1F7DA0130E01A
:102EB00087E09D91B92E992309F43CC09E32F1F42C
:102EC0008A30C9F480E02B960FB6F894DEBF0FBEAF
:102ED000CDBFDF91CF911F910F91FF90EF90DF90C9
:102EE000CF90BF90AF909F908F907F906F905F90AA
:102EF0004F903F90089538E08AE0DBCFEAEEF0E0B3
:102F00004491442321F031969413FACFDBCF8317F9
:102F1000C8F24FED490F4E35A8F64FE9490F4A3137
:102F200018F440EEB42EB90EF601E30FF11DB08295
:102F30003F5FBFCF8981803229F2322E8B01DB01C6
:102F40005B968D919C915C97F701948F838F169679
:102F50001D921D921D921C921997FB0112861386D9
:102F600014861586F80182859385A485B5854389E5
:102F700054896589768984179507A607B70708F0ED
:102F80004DC025E0B695A795979587952A95D1F7D9
:102F9000F82FFF70AF2ED80115968C91823008F46F
:102FA00091CFC8010E94D80F97FD8CCFF801828580
:102FB0009385A485B5854F96A11DB11D8287938702
:102FC000A487B587F0E2AF9EB00111246D5E7D4FFE
:102FD0006115710509F476CFDB018C91882341F0EE
:102FE000853E09F062C0BB2029F0BB24B394BACF60
:102FF000B1100EC0F701A28A8091000190910101E9
:10300000A0910201B091030186879787A08BB18BB5
:10301000DB018C918111E9CFBB24B394832D8271A4
:10302000823109F04FCFBB2009F44DC0F70166850E
:1030300077858089918941E00E94EF0A882309F40D
:1030400041CFD70152968C91B0E28B9FC0011124E1
:103050008D5E9D4F009709F435CFFC013A9626E12D
:10306000DF011D922A95E9F72BE0F601DC010190C2
:103070000D922A95E1F721E238E2FC01318B208B99
:1030800040E058E057874687338B228B318F208F63
:10309000578B468B81E00E94C40A882309F412CF23
:1030A000432DD70152966C910AC04BE050E0C60107
:1030B0000E94AD3A892B09F055CF432D6A2DC701E7
:1030C0000E945A1500CFF8018581823009F4FACEAA
:1030D000C8010E94D80E882309F4F4CED8015B966B
:1030E000ED91FC915C9716968D909D90AD90BC9063
:1030F0001997B2E08B1A9108A108B108858504C020
:10310000880C991CAA1CBB1C8A95D2F786859785CA
:10311000A089B189880E991EAA1EBB1E8481240134
:103120003501480E511C611C711C84149504A604C1
:10313000B70409F1E1E04E1A51086108710881E015
:103140000E94C40A882309F4BDCEE3E1F2E01192A3
:1031500083E194E08E179F07D1F7409200015092CF
:1031600001016092020170920301809173018160FC
:1031700080937301DACFD8015B96ED91FC912585A0
:1031800080E092E0A0E0B0E004C0880F991FAA1F81
:10319000BB1F2A95D2F7F80143895489658976893E
:1031A000840F951FA61FB71F838B948BA58BB68B9F
:1031B000D70152961C9283E192E04FCFEF92FF929B
:1031C0000F931F93CF93DF93EC017B018A011B8246
:1031D0001A8288EE93E0A0E0B0E08C839D83AE83FA
:1031E000BF8382E191E0998388838DE190E00E9422
:1031F00088399A8F898F009779F02DE1F701DC01EA
:1032000001900D922A95E1F74CE050E0B801CE0113
:103210000C960E94BA3A188EDF91CF911F910F91B0
:10322000FF90EF9008951F920F920FB60F92112406
:103230002F933F934F935F936F937F938F939F93BE
:10324000AF93BF93EF93FF9386E694E00E941A0238
:10325000FF91EF91BF91AF919F918F917F916F916E
:103260005F914F913F912F910F900FBE0F901F9044
:1032700018951F920F920FB60F9211242F938F93D0
:103280009F93EF93FF93E0917604F0917704808110
:10329000E0917C04F0917D0482FD1BC090818091BF
:1032A0007F048F5F8F7320918004821741F0E0913B
:1032B0007F04F0E0EA59FB4F958F80937F04FF91E4
:1032C000EF919F918F912F910F900FBE0F901F90B4
:1032D00018958081F4CF1F920F920FB60F92112490
:1032E0002F933F938F939F93AF93BF938091DF0171
:1032F0009091E001A091E101B091E2013091DE01F5
:1033000023E0230F2D3758F50196A11DB11D209301
:10331000DE018093DF019093E001A093E101B0937F
:10332000E2018091E3019091E401A091E501B09167
:10333000E6010196A11DB11D8093E3019093E40184
:10334000A093E501B093E601BF91AF919F918F915A
:103350003F912F910F900FBE0F901F90189526E868
:10336000230F0296A11DB11DD2CF1F920F920FB64F
:103370000F9211242F933F934F935F936F937F93FB
:103380008F939F93AF93BF93EF93FF93E0910601C9
:10339000F09107010995FF91EF91BF91AF919F9136
:1033A0008F917F916F915F914F913F912F910F90EE
:1033B0000FBE0F901F9018951F920F920FB60F928D
:1033C00011242F933F934F935F936F937F938F932A
:1033D0009F93AF93BF93EF93FF93E0910401F0911C
:1033E00005010995FF91EF91BF91AF919F918F9149
:1033F0007F916F915F914F913F912F910F900FBEF1
:103400000F901F9018951F920F920FB60F921124D4
:103410002F933F934F935F936F937F938F939F93DC
:10342000AF93BF93EF93FF938091B900887F80366D
:1034300009F44AC0F0F5883209F4A7C018F58031C4
:1034400009F49BC0B8F4882309F4F9C0883009F462
:1034500094C0FF91EF91BF91AF919F918F917F9118
:103460006F915F914F913F912F910F900FBE0F90F1
:103470001F901895883109F488C0803251F78093E5
:10348000630414C0803409F49DC040F48033B9F360
:103490008833F9F68093630485ECB0C0803509F475
:1034A00085C0883509F496C0883499F60E948A044C
:1034B000D0CF883909F48CC038F5883729F050F41A
:1034C000883611F0803729F683E0809365041092E6
:1034D000DD0157C0883809F47BC0803919F0803885
:1034E00009F0B7CF8091DD01803208F071C0E09122
:1034F000DD0181E08E0F8093DD018091BB00F0E063
:10350000E354FE4F80833DC0803B39F0E0F4803AC5
:1035100009F479C0883A09F09CCF84E0809365046F
:103520001092BC011092BB01E0911704F0911804B5
:1035300009958091BB0181110FC081E08093BB018F
:1035400010929B0109C0803C09F4A6CF883C09F485
:10355000A3CF883B09F07DCFE091BC0181E08E0FC5
:103560008093BC01F0E0E556FE4F80818093BB0064
:103570009091BC018091BB0129C08091600480932F
:10358000BB0085EC8093BC0064CF90916204809175
:103590006104981758F5E091620481E08E0F8093E2
:1035A0006204F0E0E15CFB4F8081E9CFE0916204CE
:1035B00081E08E0F809362048091BB00F0E0E15CBB
:1035C000FB4F808390916204809161049817C8F248
:1035D00085E8D8CFE091620481E08E0F8093620489
:1035E0008091BB00F0E0E15CFB4F8083809164043C
:1035F00081115CCF81E080935F0484EA8093BC00FA
:103600001092650426CF85EC8093BC00109265046F
:103610008091DD01803230F4E091DD01F0E0E3548F
:10362000FE4F10826091DD0170E0E0911504F09191
:1036300016048DEB91E009951092DD010ACF1092EE
:10364000630434CF1F920F920FB60F9211240F9084
:103650000FBE0F901F901895CF92DF92EF92FF92BE
:103660000F931F93E82FF92F05C00150110921096D
:10367000310961F1908196239417B9F305C0015087
:1036800011092109310911F1908196239413F7CF83
:10369000C12CD12CE12CF12C0AC08FEFC81AD80A0A
:1036A000E80AF80A0C151D052E053F0579F0808102
:1036B0008623841791F36C2D7D2D8E2D9F2D1F91C8
:1036C0000F91FF90EF90DF90CF90089560E070E051
:1036D00080E090E01F910F91FF90EF90DF90CF90EE
:1036E00008954F925F926F927F928F929F92AF92C6
:1036F000BF92CF92DF92EF92FF926B017C010E940A
:103700007E342B013C0184E6882E912CA12CB12C17
:10371000C301B201A50194010E94D33760933C0616
:10372000CA01B901A50194010E94D33760933D06F7
:10373000C301B20120E137E240E050E00E94D337FC
:10374000CA01B901A50194010E94D33760933F06D5
:1037500080911A068A3219F486E580931A068091C0
:103760001A06863561F420E030E0A901C701B601F0
:103770000E940034882319F084E580931A06809112
:103780001A06843461F420E030E0A901C701B601D3
:103790000E940034882319F081E480931A06FF9078
:1037A000EF90DF90CF90BF90AF909F908F907F90E1
:1037B0006F905F904F9008954F925F926F927F92BB
:1037C0008F929F92AF92BF92CF92DF92EF92FF9231
:1037D0002B013C0149015A010E947E3424E630E06D
:1037E00040E050E00E94D337CA01B9010E94B334CF
:1037F0006B017C0120E030E048EC52E40E94B835D7
:103800009B01AC01C301B2010E94933320E030E080
:1038100040E752E40E9405349B01AC01C701B601A8
:103820000E9494336B017C01C501B4010E947E3477
:103830006B7F633221F4F7FAF094F7F8F094C70144
:10384000B601FF90EF90DF90CF90BF90AF909F9028
:103850008F907F906F905F904F9008951F93CF93BC
:10386000DF93E6E6F4E01382128288EE93E0A0E0B4
:10387000B0E084839583A683B78324E231E031836B
:10388000208325EC30E03587248724EC30E037872F
:10389000268720EC30E0318B208B21EC30E0338B1D
:1038A000228B22EC30E0358B248B26EC30E0378BFA
:1038B000268B118E128E138E148EE3E0F5E01382A8
:1038C000128284839583A683B78386E391E09183F4
:1038D0008083EFE0F5E080E580831182E1E1F5E0AF
:1038E000158216821186138682E090E0A0E0B0E097
:1038F00084879587A687B78713A215A614A688E4A0
:1039000091E093A782A717A6C0E1D6E0188219829A
:103910001A821B8289E0EEE5F1E0A4E1B6E00190B5
:103920000D928A95E1F71E861D861F86188A198AD0
:103930001A8A1B8A1C8A1D8A1E8A188E1F8A198E53
:103940001A8E1B8E1C8E1D8E1E8E1F8E80E090E0A8
:10395000ACECB1E488A399A3AAA3BBA38CA39DA3B9
:10396000AEA3BFA388A799A7AAA7BBA71CA61DA6FD
:103970001EA61FA618AA19AA1AAA1BAA1CAA1EAA22
:103980001DAA1FAA18AE19AE1AAE1DAE80ED97E0A3
:10399000A0E0B0E080934E0690934F06A0935006AF
:1039A000B093510680E090E0A0E4B0E4809352062A
:1039B00090935306A0935406B09355061092560662
:1039C000E8EFF5E08CE090E0918380838DE090E07B
:1039D00093838283168280E28783108685E08687C0
:1039E00085E090E0A0E0B0E0848B958BA68BB78B50
:1039F0001186E9ECF5E015821482178216828AE1BD
:103A0000818B8FEF828B838B848B88EC95E0938303
:103A1000828360E084E20E943203E4E8F1E0E49112
:103A2000AAEBB5E0EC93E0E7F1E0E491F0E0EE0F13
:103A3000FF1FEE5BFE4F8591949112969C938E939F
:103A400011971B961C921B971D961C921D971C96F6
:103A50001C921C971A961C921A9719961C921997E9
:103A600018961C92189717961C92179716961C92E8
:103A7000169715961C92159714961C9214971396E8
:103A80001C92CFE9D5E080E49BE4ACE4B0E08F8BFE
:103A9000988FA98FBA8F11E01883198283EC9BEA63
:103AA000A6E7BBE38A839B83AC83BD8388ED9BE65B
:103AB000A6E7BBE38E839F83A887B98782EF94EE46
:103AC000A4E6BBE38A879B87AC87BD878BE190E048
:103AD0009D8B8C8B1E8A61E00E94320361E08C8991
:103AE0000E94D202E6E9F5E08EE280838FE28183D4
:103AF00080E382831092780510935A05DF91CF916D
:103B00001F910895CF93DF93CDB7DEB7CF5CD10976
:103B10000FB6F894DEBF0FBECDBF789484B5826037
:103B200084BD84B5816084BD85B5826085BD85B561
:103B3000816085BD80916E00816080936E001092DF
:103B4000810080918100826080938100809181005A
:103B500081608093810080918000816080938000EB
:103B60008091B10084608093B1008091B000816049
:103B70008093B00080917A00846080937A00809175
:103B80007A00826080937A0080917A0081608093CD
:103B90007A0080917A00806880937A001092C10048
:103BA00062E08EE20E94320362E08FE20E94320302
:103BB00062E080E30E94320361E080E10E94320310
:103BC00061E080E10E94D20261E089E20E9432035A
:103BD00080914005882321F08BE395E00E94CA1173
:103BE00010921C0510921A051092170510921605D6
:103BF00089E2809315050E947D048B0161E080912C
:103C000015050E94320361E0809115050E94D202E1
:103C10000E94970582E580930F0510921005809110
:103C20000F05909110050E948B084AE0F42E8FEF4B
:103C30000E949B06FA94F110FACF81E195E00E9470
:103C40001D0920E030E0A90160E081E195E00E94DB
:103C50003309F82E80931B0588248394881509F472
:103C6000A6C20E947D04601B710B613D774048F342
:103C700081E08093160581E195E00E94900660E066
:103C800087E00E94320360E082E10E943203E0910B
:103C90007604F091770482E08083E0917204F091E1
:103CA00073041082E0917404F09175048FEC8083AA
:103CB00010927E04E0917A04F0917B0486E0808388
:103CC000E0917804F0917904808180618083E091B3
:103CD0007804F0917904808188608083E091780491
:103CE000F0917904808180688083E0917804F0917C
:103CF000790480818F7D808381E080934D0626E664
:103D000034E030934C0620934B06809357060E9474
:103D100097058CE00E94670664E670E080E090E022
:103D20000E94A8038091F8059091F9052091FA0569
:103D30003091FB058217930719F061E00E9432036E
:103D40008091FA059091FB052091F8053091F905D5
:103D50002817390719F061E00E9432030E94970585
:103D60008091F8059091F9052091FA053091FB05B5
:103D70008217930719F060E00E94D20281E00E944E
:103D80006C0665E070E080E090E00E94A8036CE0C3
:103D900080E00E9469076FE584E00E94690782E085
:103DA00090E00E94B407882319F081E08093FE051B
:103DB00086E00E94A20790E080E00E94B40780E0C5
:103DC0000E946C0680E50E949B0683E70E949B068A
:103DD00081E00E946C0660E08DE10E94690760E06E
:103DE0008CE10E9469071092000660E787E00E945C
:103DF00069076CE485E00E94690782EE0E94E9078A
:103E000081EE0E94E90780E00E94A20781FD0BC0BD
:103E1000682F626080E00E94690765E070E080E0E2
:103E200090E00E94A80380E00E94A207682F6E7FA6
:103E300080E00E94690768E785E00E94690781E0E9
:103E400090E00E94B40786E00E94A207887F682F56
:103E5000656086E00E94690789E9CA55DF4F88835B
:103E6000C65AD04088E7C955DF4F8883C75AD0402B
:103E700086E5C855DF4F8883C85AD04084E3C755CC
:103E8000DF4F8883C95AD04082E1C655DF4F88830F
:103E9000CA5AD040C555DF4F1882CB5AD040C455BE
:103EA000DF4F1882CC5AD040C355DF4F1882CD5A0D
:103EB000D04040910606BE016A557F4F8AE00E94BD
:103EC0007F0740910606BE016A557F4F80E10E9440
:103ED0007F076091FF0581E10E9469078CE090E017
:103EE00090939A058093990590939C0580939B05E8
:103EF00090939E0580939D0587E78093D1058091DF
:103F0000DA058F3F09F0D1C10E9400038091DA05E4
:103F10008F3F09F0E5C18091C9059091CA052091B4
:103F2000D10531E030931E0420931D0410921C042F
:103F300010921B04DC01ED91FC910190F081E02DC9
:103F400060ED09958091C9059091CA050E943A05D6
:103F500041E06091D1058091C9059091CA050E9408
:103F600039148091C9059091CA05DC01ED91FC914D
:103F70000284F385E02D0995182F183509F062C0E9
:103F800088E80E9442149093DF058093DE058AE85A
:103F90000E9442149093E1058093E0058CE80E9412
:103FA00042149093E3058093E2058EE80E94421448
:103FB0009093E5058093E40580E90E944214909374
:103FC000E7058093E60582E90E9442149093E90593
:103FD0008093E80584E90E9442149093EB05809356
:103FE000EA0586E90E9442149093ED058093EC0562
:103FF00088E90E9442149093EF058093EE058AE9C8
:104000000E9442149093F1058093F0058CE90E9480
:1040100042149093F3058093F2058EE90E944214B6
:104020009093F5058093F40550E040E070E060E087
:1040300085E090E00E94DC0864E670E080E090E0BB
:104040000E94A80344E050E064E070E082E090E069
:104050000E94DC088091B50581110E94000360E098
:104060008DE20E94020760E18DE20E94020768E093
:104070008DE20E9402078091B505AE014F5F5F4F50
:1040800061E070E0882309F445C181E30E94F613E2
:1040900069816C7E636081E30E94020768EE73E0D1
:1040A00080E090E00E94A8030E947D0424E630E0B6
:1040B00040E050E00E94D33780910F0290911002AF
:1040C000A0911102B0911202281739074A075B0725
:1040D00008F45AC18091920590919305A09194059E
:1040E000B0919505892B8A2B8B2B09F42FC10E9447
:1040F0005901882309F408C78CEC0E94A9138EEBA0
:104100000E94A913DE011196BE01665F7F4F9D01DB
:1041100007E010E083E2E82EF12C9FECC92ED12CB1
:1041200048E050E0712C992493946090BA05E09196
:10413000BB05F091BC05F894B180B628B182A2808D
:10414000862C8094A820A282C8010197F1F7B18043
:10415000B820B182C7010197F1F7B0807894F601D9
:104160003197F1F7862D8B2109F07928990C415070
:104170005109D9F6F90171929F016E177F0781F6F7
:10418000398529E0E0E0215009F4C8C08D918E27DF
:10419000E82FEF70F0E0E25FFE4F9491E82FE29598
:1041A000EF70F0E0E25EFE4FE491E927ECCF2AEAFF
:1041B00031E040E050E068E081E195E00E943309A1
:1041C00082FF2AC0F0921C0580911C05C12CD12CC5
:1041D000E12C20E4F22E823019F0C12CD12C760192
:1041E00020E030E0A90167E381E195E00E94330916
:1041F000A701960169E281E195E00E94330980936D
:104200001B058823D1F00E947D04601B710B613D6A
:10421000774030F388E02DCD34E0F32E0E946D0816
:1042200080931B05FA94F110F9CF8A3A11F082E0DD
:1042300020CD82E080931C05C7CF80911C05823081
:10424000D1F420E030E0A9016AE381E195E00E9429
:104250003309882311F086E00CCD0E946D08807C24
:10426000803C19F483E080931C050E946D080E9435
:104270006D080E946D0881E195E00E94900680E53E
:1042800080930F051092100581E00E94390B88235E
:1042900029F08BE395E00E94F00DF1CC80E00E94C4
:1042A000390B882309F4EBCCF4CF61E00E94D202F1
:1042B00061E08091DA050E9432038091DD058F3F35
:1042C00009F424CE61E00E94320361E08091DB05B5
:1042D0000E94320360E08091DC050E94320316CE1A
:1042E0008091DD058F3F21F482E591E00E948B08EB
:1042F00060E08091DA050E94D20280ED0E94A20661
:1043000080E00E94A206182F61E08091DA050E94E9
:10431000D20233CE81E30E943907BACE3E13F4C5F0
:1043200069817A81072E000C880B990B0E94B534A5
:1043300020E030E040E85DE30E94B8356093790505
:1043400070937A0580937B0590937C050E947D0491
:1043500024E630E040E050E00E94D337265F3F4F34
:104360004F4F5F4F20930F02309310024093110282
:10437000509312020E945901882331F08CEC0E9464
:10438000A91384E40E94A9130E947D0414E6C12E9F
:10439000D12CE12CF12CA70196010E94D3378091FA
:1043A0000B0290910C02A0910D02B0910E02281701
:1043B00039074A075B0708F45AC090E080E00E9482
:1043C000DA0329E739EE46E95FEB0E9425362CEE49
:1043D00031E54CE850E40E94B83560935F05709376
:1043E0006005809361059093620581E090E00E94F2
:1043F000DA0320E635EE40E85FE30E94253629E245
:104400003CE54BED50E40E940534609368057093E1
:10441000690580936A0590936B0582E090E00E94A5
:10442000DA032FE832EC45ED5FEB0E94253626EFEC
:1044300038E24CEB5FE30E94053460936C057093A7
:104440006D0580936E0590936F050E947D04A70112
:1044500096010E94D3372C593F4F4F4F5F4F209307
:104460000B0230930C0240930D0250930E020E94F7
:104470007D0424E630E040E050E00E94D337809194
:10448000070290910802A0910902B0910A02281730
:1044900039074A075B07F0F1B0E4FB2E10E000E0BB
:1044A0008EE00E946E03080F191F61E070E080E04B
:1044B00090E00E94A803FA94F110F2CFA6E01695BE
:1044C0000795AA95E1F7B80190E080E00E94B33427
:1044D00028EB3EE141E151E40E94053460935B0525
:1044E00070935C0580935D0590935E050E947D044A
:1044F00024E630E040E050E00E94D3372C5E3F4F8E
:104500004F4F5F4F209307023093080240930902F8
:1045100050930A020E947D0424E630E040E050E01F
:104520000E94D3378091030290910402A09105026A
:10453000B0910602281739074A075B0708F442C002
:104540008091B5054DEA55E066E070E0882309F4F6
:10455000E8C482E30E94F6134091AD055091AE0588
:1045600050930202409301022091AF058091B00563
:104570002093FF01809300028091B1059091B205D4
:104580009093FE018093FD01509382054093810535
:104590002093830590938505809384050E947D0474
:1045A00024E630E040E050E00E94D3372E5F3F4FDA
:1045B0004F4F5F4F20930302309304024093050254
:1045C000509306020E947D0424E630E040E050E073
:1045D0000E94D3378091F9019091FA01A091FB01DB
:1045E000B091FC01281739074A075B0708F44DC34F
:1045F0008AEF0E94B0140091DE051091DF0530E0D3
:1046000020E0C72ED82EE92EFF24E7FCFA94C01A2A
:10461000D10AE20AF30AB7E09595879577956795F1
:10462000BA95D1F7000F111F221F331F4B015C01F8
:10463000801A910AA20AB30AA5019401A091E0058B
:10464000B091E1050E942E384B015C015BE0B5940E
:10465000A794979487945A95D1F7A7019601C7011B
:10466000B6010E94AF379B01AC016CE055954795B0
:10467000379527956A95D1F7A091E205B091E305AA
:104680000E942E38EEE09595879577956795EA9587
:10469000D1F7860E971EA81EB91E8092D60590925D
:1046A000D705A092D805B092D90587EF0E94B01423
:1046B000C453DF4F688379838A839B83CC5CD0406B
:1046C0008091D6059091D705A091D805B091D905D4
:1046D0006C017D01FF0CCC08DC2C76019C01AD0146
:1046E0006C2D7C2D8C2D9C2D345F4140510961092E
:1046F000710981099109C255DF4F2883CE5AD040F4
:10470000CE54DF4F3883C25BD040CD54DF4F488357
:10471000C35BD040C854DF4F5883C85BD040CC54F3
:10472000DF4F6883C45BD040C754DF4F7883C95BD9
:10473000D040C354DF4F8883CD5BD040C254DF4F9D
:104740009883CE5BD04059016A017B018C010E94A5
:104750003638C154DF4F2883CF5BD040C054DF4F81
:104760003883C05CD040CF53DF4F4883C15CD0401A
:10477000C953DF4F5883C75CD040C853DF4F6883AD
:10478000C85CD040C753DF4F7883C95CD040C65364
:10479000DF4F8883CA5CD040C553DF4F9883CB5C22
:1047A000D0403091E7052091E605932F990F990BA2
:1047B000492F592F692F792F892F0E9436380CE005
:1047C0000E942E39722E832E942E652E562E472E41
:1047D000382E292E3091E9052091E805932F990F65
:1047E000990BC154DF4FA880CF5BD040C054DF4F3E
:1047F000B880C05CD040CF53DF4FC880C15CD04090
:10480000C953DF4FD880C75CD040C853DF4FE88022
:10481000C85CD040C753DF4FF880C95CD040C65356
:10482000DF4F0881CA5CD040C553DF4F1881CB5C95
:10483000D040492F592F692F792F892F0E94363860
:1048400008E00E944739A72CB82CC92CD62CE52C9F
:10485000F42C032D122D0E94643970588F4F9F4FF6
:104860002090E4053090E5055101C12CD12CE12CBC
:10487000F12C00E010E00E94363801E20E94473936
:10488000CE53DF4F2883C25CD040CD53DF4F3883F7
:10489000C35CD040CC53DF4F4883C45CD040CB5383
:1048A000DF4F5883C55CD040CA53DF4F6883C65C76
:1048B000D040272E382E492EA0E00E94763909F4E8
:1048C00034C33091EF052091EE05932F990F990B8A
:1048D000C154DF4FA880CF5BD040C054DF4FB880B9
:1048E000C05CD040CF53DF4FC880C15CD040C953BB
:1048F000DF4FD880C75CD040C853DF4FE880C85C2A
:10490000D040C753DF4FF880C95CD040C653DF4F5B
:104910000881CA5CD040C553DF4F1881CB5CD040C2
:10492000492F592F692F792F892F0E943638C1546A
:10493000DF4F2883CF5BD040C054DF4F3883C05C4B
:10494000D040CF53DF4F4883C15CD040552E3B0150
:104950004C013091ED052091EC05932F990F990BA7
:10496000C255DF4FA880CE5AD040CE54DF4FB8801A
:10497000C25BD040CD54DF4FC880C35BD040C85429
:10498000DF4FD880C85BD040CC54DF4FE880C45B99
:10499000D040C754DF4FF880C95BD040C354DF4FCD
:1049A0000881CD5BD040C254DF4F1881CE5BD04030
:1049B000492F592F692F792F892F0E94363801E10D
:1049C0000E942E39C154DF4FA880CF5BD040C05425
:1049D000DF4FB880C05CD040CF53DF4FC880C15C90
:1049E000D040D52C730184010E94643959016A01B9
:1049F0007B01182F592EC453DF4F488159816A819A
:104A00007B81CC5CD040F4E07595679557954795D0
:104A1000FA95D1F780E090E0A0E1B0E0841B950B1F
:104A2000A60BB70B3C014D01990C6608762C43018F
:104A30009C01AD01662D762D862D962D0FE10E94ED
:104A40002E3939014A01B62FA72FF82FE92F3091BF
:104A5000EB052091EA05932F990F990B492F592FB8
:104A6000692F792F892F03E20E942E39012F152DEE
:104A70000E94643959016A017B018C019301A401F0
:104A80006B2F7A2F8F2F9E2F0E946D39E5E3AE2E6C
:104A9000FCE0BF2EC12CD12CE12CF12C00E010E069
:104AA0000E943638CE53DF4FA880C25CD040CD5331
:104AB000DF4FB880C35CD040CC53DF4FC880C45CAC
:104AC000D040CB53DF4FD880C55CD040CA53DF4FB6
:104AD000E880C65CD040F22C032D142D0E94903843
:104AE000C255DF4F2883CE5AD040CE54DF4F388393
:104AF000C25BD040CD54DF4F4883C35BD040C85425
:104B0000DF4F5883C85BD040CC54DF4F6883C45B11
:104B1000D040C754DF4F7883C95BD040C354DF4FC8
:104B20008883CD5BD040C254DF4F9883CE5BD040AA
:104B30000DE00E944739922E832E742E652E562E3C
:104B4000472E382E292E3091F5052091F405932F0C
:104B5000990F990BA92CB82CC72CD62CE52CF42C2A
:104B6000032D122D492F592F692F792F892F0E943C
:104B700036380E94363809E10E944739C255DF4F66
:104B8000A880CE5AD040CE54DF4FB880C25BD04010
:104B9000CD54DF4FC880C35BD040C854DF4FD880AE
:104BA000C85BD040CC54DF4FE880C45BD040C754D2
:104BB000DF4FF880C95BD040C354DF4F0881CD5B25
:104BC000D040C254DF4F1881CE5BD0400E94643980
:104BD00019012A013B014C013091F3052091F205A6
:104BE000932F990F990B492F592F692F792F892FBF
:104BF0000E94363803E10E94473959016A017B015E
:104C00008C019101A201B301C4010E94643908E042
:104C10000E94473959016A017B01E82F192F309111
:104C2000F1052091F005932F990F990B492F592FDA
:104C3000692F792F892F04E00E942E390E2F0E94B0
:104C400064390E94AD3420E030E040E85BE30E942C
:104C5000B83560937D0570937E0580937F059093B2
:104C600080050E947D0424E630E040E050E00E9490
:104C7000D337265F3F4F4F4F5F4F2093F90130935B
:104C8000FA014093FB015093FC010E947D04E4E68D
:104C9000CE2ED12CE12CF12CA70196010E94D33706
:104CA0008091F5019091F601A091F701B091F80182
:104CB000281739074A075B0708F470C00E947D0473
:104CC000A70196010E94D33729013A014EE5242E0F
:104CD00041E0342E58EE852E53E0952EA12CB12CB8
:104CE000E2E7F1E06491F1018491E82FF0E0EE0F4A
:104CF000FF1FEE5BFE4F8591949100EE11E52FE0D2
:104D000030E0462F0E942C1B61157105810591052D
:104D100029F06F5F7F4F8F4F9F4F9F70A5019401C8
:104D20000E94D33769017A01A8E8B3E10E942338D1
:104D30006051774281099109A50194010E94D337FE
:104D400030936705209366050E947D0424E630E0D9
:104D500040E050E00E94D33724193509460957092D
:104D6000283B3B404105510528F4CD28CE28CF28CB
:104D700009F4B6CF0E947D0424E630E040E050E024
:104D80000E94D337265F3F4F4F4F5F4F2093F5016F
:104D90003093F6014093F7015093F8010E947D048F
:104DA00024E630E040E050E00E94D3378091F101EA
:104DB0009091F201A091F301B091F4012817390705
:104DC0004A075B0708F42CC58091570681114AC039
:104DD00010921F06109220061092210610922206B1
:104DE0001092230610922406109225061092260691
:104DF000109228061092270610922B0610922C066D
:104E000010922D0610922E0610922F0610923C063C
:104E100010923D0610923F061092410610924306F2
:104E200010924406109246061092450680E090E0EB
:104E3000A8E4B2E48093300690933106A093320642
:104E4000B09333068093340690933506A0933606CC
:104E5000B09337068093380690933906A0933A06AC
:104E6000B0933B0610921E0610921D068AE28093B4
:104E70001406809316068093150680931706809378
:104E8000180680931B068093190680931A061092C9
:104E9000290610922A0680914D06882309F488C4B9
:104EA00063961FAE639764961FAE649765961FAEB8
:104EB000659766961FAE669767961FAE67970E94C6
:104EC0007D0400914E0610914F06209150063091BE
:104ED00051064B015C01800E911EA21EB31EC754E9
:104EE000DF4F88829982AA82BB82C95BD0400E9430
:104EF0003E01CD54DF4F8883C35BD040882309F443
:104F0000C2C10E942A01F3CF80E090E0A0ECBFE78D
:104F10008093790590937A05A0937B05B0937C05E7
:104F200015CA82E30E94390717CB60E070E0CB011D
:104F300090CE10E0CE54DF4F1882C25BD040C12C1F
:104F4000D12C7601412C512C320107C02DECC22E00
:104F50002CECD22EED2C2DE3F22E0E947D04C754B2
:104F6000DF4F88809980AA80BB80C95BD0406815DC
:104F700079058A059B0508F09AC180911D069091DC
:104F80001E0697FD94C10E943E01882331F30E94C2
:104F90002A01082F843269F28A3211F00C94D83039
:104FA000C12CD12C76010E947D04C754DF4F88802C
:104FB0009980AA80BB80C95BD040681579058A05B5
:104FC0009B0550F420E030E040E050E4C701B6011A
:104FD0000E94003487FD5FC6C255DF4F9880CE5ACD
:104FE000D0401911BACFE1968FADE197873409F01F
:104FF00077C6E2968FADE297873411F00C949C321D
:10500000E3968FADE397813409F07BC080911D0654
:1050100090911E0680FF05C0906890931E068093B5
:105020001D0680911D0690911E06816090931E06BC
:1050300080931D0640FE06C069817A818B819C8128
:105040000E94711B45FE09C06D897E898F89988DEC
:105050000E947E34605D6093140646FE08C0698D30
:105060007A8D8B8D9C8D0E947E3460932A0647FE3C
:105070000CC08D8D9E8DAF8DB8A18093340690931A
:105080003506A0933606B093370680911406813317
:1050900024F480915706811134C041FE12C0298545
:1050A0003A854B855C856D817E818F8198850E94D4
:1050B000DC1B60931F06709320068093210690935B
:1050C000220643FE12C029893A894B895C896D8585
:1050D0007E858F8598890E94DC1B609323067093E0
:1050E0002406809325069093260650FE0AC069A1E7
:1050F0007AA18BA19CA10E947E34709328066093B4
:105100002706E2968FADE297833509F0E6C6E3966F
:105110008FADE3978435E1F480911D0690911E06D2
:1051200086FF05C0906890931E0680931D068091AF
:105130001D0690911E06806490931E0680931D06A6
:1051400040FE06C069817A818B819C810E94711B1F
:10515000E3968FADE397813409F052C029968CAC69
:105160009DACAEACBFAC299720E030E040E85FE3F7
:10517000C501B4010E9400348111D6C780911D067B
:1051800090911E0687FF05C0906890931E0680933D
:105190001D0680911D0690911E06806890931E0644
:1051A00080931D0656FE0CC089AD9AADABADBCAD6B
:1051B0008093300690933106A0933206B093330665
:1051C00057FE0EC021968CAD9DADAEADBFAD219703
:1051D0008093340690933506A0933606B093370635
:1051E00060FE0EC025968CAD9DADAEADBFAD2597D2
:1051F0008093380690933906A0933A06B0933B0605
:10520000E3968FADE397863509F067C680911D065A
:1052100090911E06946090931E0680931D0686E072
:1052200062968FAF6297AF968FADAF97873409F0D4
:10523000B4C7E0968FADE097803511F00C940E3333
:1052400081E062968FAF629742FE47C662960FADCD
:105250006297063008F041C641E550E04C0F5D1FF3
:10526000400F511D8A0169857A858B859C850E9436
:105270007E34D8016C9331C621E0C854DF4F2883B7
:10528000C85BD0406ACEC255DF4F1882CE5AD0409C
:1052900010E0CE54DF4F1882C25BD040C12CD12C1D
:1052A0007601C854DF4F1882C85BD0404BCE0091C6
:1052B0001406309016068091560681110C94013226
:1052C0008091450690914606892B49F480914406C9
:1052D00090E08053984F9093460680934506E09166
:1052E0004506F0914606AF01425B57409A01ADE694
:1052F000B1E00E94143850E040E02F5F3F4F4F4F25
:105300005F4F49015A01B2E0B694A79497948794ED
:10531000BA95D1F7C255DF4F88829982AA82BB82A3
:10532000CE5AD04030914306C32ED12C41E050E0FC
:10533000393010F450E040E04C0D5D1D5595479517
:1053400021E0C21AD1082EE12C9D70012D9DF00C98
:1053500011244E0D5F1D2A01550F66087708C12CD8
:10536000D12C7601333050F0E370FF27EF2B11F092
:105370000C944432C12CD12C7601C3942091410667
:105380002150330B4901330FAA08BB08860E971E24
:10539000A81EB91EC255DF4F88819981AA81BB81A1
:1053A000CE5AD040880D991DAA1DBB1D9C01AD0190
:1053B000240D351D461D571D2C193D094E095F0949
:1053C00060E871E581E090E00E94AF374B015C013D
:1053D00020913F0630E0A0E1BEE00E9414382B018E
:1053E0003C0120913D0630E0ACE3B0E00E9414386F
:1053F000460E571E681E791E80913C06480E511CB1
:10540000611C711C840C951CA61CB71C809247065D
:1054100090924806A0924906B0924A0610911A0648
:10542000113411F01435D1F54090520650905306C6
:10543000609054067090550620E030E048EC52E44D
:10544000C301B2010E94B8350E94773424E630E0EF
:1054500040E050E00E94F5379B01AC01A4E2B0E0CF
:105460000E9423386B017C01C301B2010E94773492
:105470009B01AC01A0E1BEE00E942338C60ED71EFE
:10548000E81EF91E8C0C9D1CAE1CBF1C80924706AA
:1054900090924806A0924906B0924A06809047062C
:1054A00090904806A0904906B0904A067CE3C72E2B
:1054B000D12CE12CF12CC501B401A70196010E9469
:1054C000D33760933C06A5019401261B370B480B8C
:1054D000590BCA01B901A70196010E94D3374901AE
:1054E0005A01CA01B901A70196010E94D3376093FE
:1054F0003D06A5019401261B370B480B590BCA0129
:10550000B901A70196010E94D33769017A01CA0146
:10551000B90128E130E040E050E00E94D3376093C9
:105520003F062CE06D3008F420E0362F321B232F8D
:1055300009F4B1C720933E0631E02FEF260F2C303F
:1055400008F430E03093400646015701861A970A66
:10555000A80AB90AC501B40128E130E040E050E0F2
:105560000E94D33769017A01812C912C54012401C6
:1055700035012FEF421A520A620A720AD501C4019C
:105580000296A11DB11D9C01AD0162E056954795A3
:10559000379527956A95D1F7C255DF4F2883398310
:1055A0004A835B83CE5AD040ADE6B1E0A3019201BD
:1055B0000E942338C255DF4F288139814A815B819F
:1055C000CE5AD040620F731F841F951FC616D70690
:1055D000E806F90608F061C7C701B6016C5F7F4FA6
:1055E0008F4F9F4F27E030E040E050E00E94D337DC
:1055F00060934206ADE6B1E0A50194010E94233814
:10560000C61AD70AE80AF90A52E0769467945794C2
:1056100047945A95D1F7C418D508E608F7083EE430
:10562000831A38EF930A9092460680924506C40189
:1056300064E670E00E94BF378093440643E0842212
:1056400099244DE1892809F04CE121E050E070E017
:1056500060E0CD54DF4F8881C35BD0408F5FCD5475
:10566000DF4F8883C35BD040882E912CB12CA12CB6
:10567000D501C4010196A11DB11D8170822791E061
:10568000A8E08A169104A104B10408F090E08917FB
:1056900009F406C7CD54DF4FB881C35BD040B230A8
:1056A00009F003C7DB01CA01C816D906EA06FB06E2
:1056B00008F000C7CD54DF4F8880C35BD040809294
:1056C0004306C394C092410663968FAD6397649678
:1056D0009FAD6497890F65969FAD6597890F669614
:1056E0009FAD6697890F67969FAD6797890F8093E7
:1056F000290690912A06891708F4E1C6C0902C0665
:10570000D0902D06E0902E06F0902F0620E030E09D
:1057100044E353E4C701B6010E94B335181684F47C
:10572000A701960160E070E084EB93E40E9493335C
:1057300060932C0670932D0680932E0690932F066F
:1057400080911D0690911E06892B09F4BBC682E04C
:10575000113409F4B9C6143509F4B6C6809310069D
:10576000143409F4B6C68093110680931306909101
:105770001906913411F0943411F410921306977FA6
:10578000953411F410921306013314F0109213069D
:105790008093120641E4942E391421F0809117066B
:1057A000813411F410921206013314F01092120693
:1057B00080911206811120C080911F0690912006D1
:1057C000A0912106B09122068093860590938705CB
:1057D000A0938805B09389058091230690912406B3
:1057E000A0912506B091260680938A0590938B059B
:1057F000A0938C05B0938D050E947D0424E630E0D3
:1058000040E050E00E94D3372C5E3F4F4F4F5F4F38
:105810002093F1013093F2014093F3015093F4018E
:105820000E947D0434E6C32ED12CE12CF12CA7017B
:1058300096010E94D3378091ED019091EE01A091E5
:10584000EF01B091F001281739074A075B0740F1D3
:105850006091E7017091E801072E000C880B990B0D
:105860000E94B53460937005709371058093720542
:10587000909373051092E8011092E7010E947D0455
:10588000A70196010E94D337285A3D4F4F4F5F4FD3
:105890002093ED013093EE014093EF015093F0011E
:1058A0000E947D0424E6C22ED12CE12CF12CA7010C
:1058B00096010E94D3378091E9019091EA01A0916D
:1058C000EB01B091EC01281739074A075B0708F490
:1058D000D2C188E795E00E94F8078AE595E00E942A
:1058E000F8078091920590919305A0919405B0914D
:1058F00095050196A11DB11D809392059093930586
:10590000A0939405B09395058091740590917505C9
:10591000A0917605B09177050196A11DB11D8093E8
:10592000740590937505A0937605B09377050E9452
:105930007D04A70196010E94D3372E5F3F4F4F4F42
:105940005F4F2093E9013093EA014093EB015093BC
:10595000EC011C821B8208E411E01A8309831E8279
:10596000CE0101960E94F00DBE016F5F7F4FCE0108
:1059700082599F4F0E94D00565961FAE1EAE659757
:1059800063961FAF0EAF639767961FAE6797E49657
:105990008FADE4978111A0C5C357DF4F19821882DC
:1059A000CD58D04088EE93E0A0E0B0E0C157DF4F83
:1059B00088839983AA83BB83CF58D04082E191E04A
:1059C000C557DF4F99838883CB58D040CC55DF4FE4
:1059D00019821882C45AD040C956DF4F1882C7595D
:1059E000D040CC55DF4FE881F981C45AD040309780
:1059F00009F441C18581882309F43DC140918605A0
:105A000050918705609188057091890527E030E005
:105A1000CE0185579F4F0E945616CE0185579F4F46
:105A20000E94521640918A0550918B0560918C0519
:105A300070918D0527E030E0CE0185579F4F0E9481
:105A40005616CE0185579F4F0E94521640917D05F4
:105A500050917E0560917F057091800522E030E0D5
:105A6000CE0185579F4F0E945616CE0185579F4FF6
:105A70000E94521640917D0550917E0560917F05F0
:105A80007091800522E030E0CE0185579F4F0E9443
:105A90005616CE0185579F4F0E94521640917905A8
:105AA00050917A0560917B0570917C0522E030E091
:105AB000CE0185579F4F0E945616CE0185579F4FA6
:105AC0000E9452166091810570918205CE01855722
:105AD0009F4F0E941C16CE0185579F4F0E94521661
